{
    "contractName": "NBMarketplace",
    "abi": [
        {
            "inputs": [
                {
                    "internalType": "uint16",
                    "name": "_devCut",
                    "type": "uint16"
                },
                {
                    "internalType": "uint16",
                    "name": "_salesFee",
                    "type": "uint16"
                }
            ],
            "stateMutability": "nonpayable",
            "type": "constructor"
        },
        {
            "anonymous": false,
            "inputs": [
                {
                    "indexed": true,
                    "internalType": "address",
                    "name": "_nftContract",
                    "type": "address"
                },
                {
                    "indexed": true,
                    "internalType": "uint256",
                    "name": "_tokenId",
                    "type": "uint256"
                }
            ],
            "name": "CancelSale",
            "type": "event"
        },
        {
            "anonymous": false,
            "inputs": [
                {
                    "indexed": false,
                    "internalType": "address",
                    "name": "account",
                    "type": "address"
                }
            ],
            "name": "Paused",
            "type": "event"
        },
        {
            "anonymous": false,
            "inputs": [
                {
                    "indexed": true,
                    "internalType": "address",
                    "name": "_nftContract",
                    "type": "address"
                },
                {
                    "indexed": true,
                    "internalType": "uint256",
                    "name": "_tokenId",
                    "type": "uint256"
                },
                {
                    "indexed": false,
                    "internalType": "uint128",
                    "name": "_price",
                    "type": "uint128"
                },
                {
                    "indexed": false,
                    "internalType": "uint256",
                    "name": "_startedAt",
                    "type": "uint256"
                },
                {
                    "indexed": false,
                    "internalType": "address",
                    "name": "_seller",
                    "type": "address"
                }
            ],
            "name": "SaleCreated",
            "type": "event"
        },
        {
            "anonymous": false,
            "inputs": [
                {
                    "indexed": true,
                    "internalType": "address",
                    "name": "_nftContract",
                    "type": "address"
                },
                {
                    "indexed": true,
                    "internalType": "uint256",
                    "name": "_tokenId",
                    "type": "uint256"
                },
                {
                    "indexed": false,
                    "internalType": "uint256",
                    "name": "_price",
                    "type": "uint256"
                },
                {
                    "indexed": false,
                    "internalType": "address",
                    "name": "_soldBy",
                    "type": "address"
                },
                {
                    "indexed": false,
                    "internalType": "address",
                    "name": "_newOwner",
                    "type": "address"
                }
            ],
            "name": "Sold",
            "type": "event"
        },
        {
            "anonymous": false,
            "inputs": [
                {
                    "indexed": false,
                    "internalType": "address",
                    "name": "account",
                    "type": "address"
                }
            ],
            "name": "Unpaused",
            "type": "event"
        },
        {
            "inputs": [],
            "name": "admin",
            "outputs": [
                {
                    "internalType": "address",
                    "name": "",
                    "type": "address"
                }
            ],
            "stateMutability": "view",
            "type": "function"
        },
        {
            "inputs": [],
            "name": "burner",
            "outputs": [
                {
                    "internalType": "address",
                    "name": "",
                    "type": "address"
                }
            ],
            "stateMutability": "view",
            "type": "function"
        },
        {
            "inputs": [
                {
                    "internalType": "address",
                    "name": "_nftContract",
                    "type": "address"
                },
                {
                    "internalType": "uint256",
                    "name": "_tokenId",
                    "type": "uint256"
                }
            ],
            "name": "buy",
            "outputs": [],
            "stateMutability": "payable",
            "type": "function"
        },
        {
            "inputs": [
                {
                    "internalType": "address",
                    "name": "_nftContract",
                    "type": "address"
                },
                {
                    "internalType": "uint256",
                    "name": "_tokenId",
                    "type": "uint256"
                }
            ],
            "name": "cancelSale",
            "outputs": [],
            "stateMutability": "nonpayable",
            "type": "function"
        },
        {
            "inputs": [
                {
                    "internalType": "address",
                    "name": "_nftContract",
                    "type": "address"
                },
                {
                    "internalType": "uint256",
                    "name": "_tokenId",
                    "type": "uint256"
                }
            ],
            "name": "cancelSaleWhenPaused",
            "outputs": [],
            "stateMutability": "nonpayable",
            "type": "function"
        },
        {
            "inputs": [],
            "name": "ceo",
            "outputs": [
                {
                    "internalType": "address",
                    "name": "",
                    "type": "address"
                }
            ],
            "stateMutability": "view",
            "type": "function"
        },
        {
            "inputs": [
                {
                    "internalType": "address",
                    "name": "_nftContract",
                    "type": "address"
                },
                {
                    "internalType": "uint256",
                    "name": "_tokenId",
                    "type": "uint256"
                },
                {
                    "internalType": "uint128",
                    "name": "_price",
                    "type": "uint128"
                }
            ],
            "name": "createSale",
            "outputs": [],
            "stateMutability": "nonpayable",
            "type": "function"
        },
        {
            "inputs": [],
            "name": "devCut",
            "outputs": [
                {
                    "internalType": "uint16",
                    "name": "",
                    "type": "uint16"
                }
            ],
            "stateMutability": "view",
            "type": "function"
        },
        {
            "inputs": [
                {
                    "internalType": "uint256",
                    "name": "_tokenId",
                    "type": "uint256"
                }
            ],
            "name": "getFPSale",
            "outputs": [
                {
                    "internalType": "address",
                    "name": "_seller",
                    "type": "address"
                },
                {
                    "internalType": "uint128",
                    "name": "_price",
                    "type": "uint128"
                },
                {
                    "internalType": "uint256",
                    "name": "_startedAt",
                    "type": "uint256"
                }
            ],
            "stateMutability": "view",
            "type": "function"
        },
        {
            "inputs": [],
            "name": "manager",
            "outputs": [
                {
                    "internalType": "address",
                    "name": "",
                    "type": "address"
                }
            ],
            "stateMutability": "view",
            "type": "function"
        },
        {
            "inputs": [],
            "name": "minter",
            "outputs": [
                {
                    "internalType": "address",
                    "name": "",
                    "type": "address"
                }
            ],
            "stateMutability": "view",
            "type": "function"
        },
        {
            "inputs": [
                {
                    "internalType": "address",
                    "name": "_newAdmin",
                    "type": "address"
                }
            ],
            "name": "newAdmin",
            "outputs": [],
            "stateMutability": "nonpayable",
            "type": "function"
        },
        {
            "inputs": [
                {
                    "internalType": "address",
                    "name": "_newBurner",
                    "type": "address"
                }
            ],
            "name": "newBurner",
            "outputs": [],
            "stateMutability": "nonpayable",
            "type": "function"
        },
        {
            "inputs": [
                {
                    "internalType": "address",
                    "name": "_newCEO",
                    "type": "address"
                }
            ],
            "name": "newCEO",
            "outputs": [],
            "stateMutability": "nonpayable",
            "type": "function"
        },
        {
            "inputs": [
                {
                    "internalType": "address",
                    "name": "_newManager",
                    "type": "address"
                }
            ],
            "name": "newManager",
            "outputs": [],
            "stateMutability": "nonpayable",
            "type": "function"
        },
        {
            "inputs": [
                {
                    "internalType": "address",
                    "name": "_newMinter",
                    "type": "address"
                }
            ],
            "name": "newMinter",
            "outputs": [],
            "stateMutability": "nonpayable",
            "type": "function"
        },
        {
            "inputs": [],
            "name": "pause",
            "outputs": [],
            "stateMutability": "nonpayable",
            "type": "function"
        },
        {
            "inputs": [],
            "name": "paused",
            "outputs": [
                {
                    "internalType": "bool",
                    "name": "",
                    "type": "bool"
                }
            ],
            "stateMutability": "view",
            "type": "function"
        },
        {
            "inputs": [
                {
                    "internalType": "uint256",
                    "name": "",
                    "type": "uint256"
                }
            ],
            "name": "sales",
            "outputs": [
                {
                    "internalType": "address",
                    "name": "seller",
                    "type": "address"
                },
                {
                    "internalType": "uint128",
                    "name": "price",
                    "type": "uint128"
                },
                {
                    "internalType": "uint256",
                    "name": "startedAt",
                    "type": "uint256"
                }
            ],
            "stateMutability": "view",
            "type": "function"
        },
        {
            "inputs": [],
            "name": "salesFee",
            "outputs": [
                {
                    "internalType": "uint16",
                    "name": "",
                    "type": "uint16"
                }
            ],
            "stateMutability": "view",
            "type": "function"
        },
        {
            "inputs": [],
            "name": "unpause",
            "outputs": [],
            "stateMutability": "nonpayable",
            "type": "function"
        }
    ],
    "bytecode": "608060405234801561001057600080fd5b50604051620013af380380620013af8339810160408190526100319161019b565b60028054336001600160a01b0319918216811790925560038054821683179055600480548216831790556005805490911682179055600680546001600160a81b031916909117905561271061ffff831611156100ec5760405162461bcd60e51b815260206004820152602f60248201527f4e424d61726b6574706c6163653a20537065636966696564206465762063757460448201526e206973206f766572206c696d69747360881b60648201526084015b60405180910390fd5b6127108161ffff16111561015c5760405162461bcd60e51b815260206004820152603160248201527f4e424d61726b657470616c63653a205370656369666965642073616c657320666044820152706565206973206f766572206c696d69747360781b60648201526084016100e3565b6000805463ffffffff19166201000061ffff9485160261ffff191617919092161790556101ce565b805161ffff8116811461019657600080fd5b919050565b600080604083850312156101ae57600080fd5b6101b783610184565b91506101c560208401610184565b90509250929050565b6111d180620001de6000396000f3fe60806040526004361061012a5760003560e01c8063908921fc116100ab578063b050191f1161006f578063b050191f14610363578063b5f522f71461037e578063cce7ec13146103d1578063ceb02f6e146103e4578063f840f72b14610404578063f851a4401461042457600080fd5b8063908921fc146102af57806390dd2423146102cf5780639c286837146102ef578063a6ba31c114610323578063a9917dbe1461034357600080fd5b8063481c6a75116100f2578063481c6a751461021057806357341912146102305780635c975abb146102505780638456cb591461027a578063906e94001461028f57600080fd5b8063075461721461012f57806316f3a95b1461016c57806325f5e5f51461018e57806327810b6e146101db5780633f4ba83a146101fb575b600080fd5b34801561013b57600080fd5b5060035461014f906001600160a01b031681565b6040516001600160a01b0390911681526020015b60405180910390f35b34801561017857600080fd5b5061018c610187366004610f8b565b610444565b005b34801561019a57600080fd5b506101ae6101a9366004610fb7565b610555565b604080516001600160a01b0390941684526001600160801b03909216602084015290820152606001610163565b3480156101e757600080fd5b5060045461014f906001600160a01b031681565b34801561020757600080fd5b5061018c6105e7565b34801561021c57600080fd5b5060065461014f906001600160a01b031681565b34801561023c57600080fd5b5061018c61024b366004610fd0565b6106a4565b34801561025c57600080fd5b50600654600160a01b900460ff166040519015158152602001610163565b34801561028657600080fd5b5061018c610717565b34801561029b57600080fd5b5061018c6102aa366004610fd0565b61079c565b3480156102bb57600080fd5b5060055461014f906001600160a01b031681565b3480156102db57600080fd5b5061018c6102ea366004610f8b565b61080f565b3480156102fb57600080fd5b506000546103109062010000900461ffff1681565b60405161ffff9091168152602001610163565b34801561032f57600080fd5b5061018c61033e366004610fd0565b6108e2565b34801561034f57600080fd5b5061018c61035e366004610fd0565b610937565b34801561036f57600080fd5b506000546103109061ffff1681565b34801561038a57600080fd5b506101ae610399366004610fb7565b60016020819052600091825260409091208054918101546002909101546001600160a01b03909216916001600160801b039091169083565b61018c6103df366004610f8b565b61098c565b3480156103f057600080fd5b5061018c6103ff366004610ff4565b6109d0565b34801561041057600080fd5b5061018c61041f366004610fd0565b610ab6565b34801561043057600080fd5b5060025461014f906001600160a01b031681565b600081815260016020818152604092839020835160608101855281546001600160a01b03168152928101546001600160801b0316918301919091526002810154919092018190526104b05760405162461bcd60e51b81526004016104a790611042565b60405180910390fd5b80546001600160a01b0316336001600160a01b0316146105385760405162461bcd60e51b815260206004820152603860248201527f4e424d61726b6574706c6163653a205f6d736753656e6465722829206973206e60448201527f6f74207468652073656c6c6572206f6620746865204e4654000000000000000060648201526084016104a7565b805461055090849084906001600160a01b0316610b29565b505050565b6000818152600160208181526040808420815160608101835281546001600160a01b03168152938101546001600160801b0316928401929092526002820154920182905282918291906105ba5760405162461bcd60e51b81526004016104a790611042565b805460018201546002909201546001600160a01b03909116966001600160801b0390921695509350915050565b600654600160a01b900460ff166106375760405162461bcd60e51b815260206004820152601460248201527314185d5cd8589b194e881b9bdd081c185d5cd95960621b60448201526064016104a7565b6002546001600160a01b0316336001600160a01b03161461065757600080fd5b6006805460ff60a01b191690557f5db9ee0a495bf2e6ff9c91a7834c1ba4fdd244a5e8aa4e537bd38aeae4b073aa335b6040516001600160a01b03909116815260200160405180910390a1565b6002546001600160a01b0316336001600160a01b031614806106d957506005546001600160a01b0316336001600160a01b0316145b6106e257600080fd5b6001600160a01b0381166106f557600080fd5b600380546001600160a01b0319166001600160a01b0392909216919091179055565b600654600160a01b900460ff16156107415760405162461bcd60e51b81526004016104a79061108d565b6002546001600160a01b0316336001600160a01b03161461076157600080fd5b6006805460ff60a01b1916600160a01b1790557f62e78cea01bee320cd4e420270b5ea74000d11b0c9f74754ebdbfc544b05a2586106873390565b6002546001600160a01b0316336001600160a01b031614806107d157506005546001600160a01b0316336001600160a01b0316145b6107da57600080fd5b6001600160a01b0381166107ed57600080fd5b600680546001600160a01b0319166001600160a01b0392909216919091179055565b600654600160a01b900460ff1661085f5760405162461bcd60e51b815260206004820152601460248201527314185d5cd8589b194e881b9bdd081c185d5cd95960621b60448201526064016104a7565b6002546001600160a01b0316336001600160a01b03161461087f57600080fd5b600081815260016020818152604092839020835160608101855281546001600160a01b03168152928101546001600160801b0316918301919091526002810154919092018190526105385760405162461bcd60e51b81526004016104a790611042565b6002546001600160a01b0316336001600160a01b03161461090257600080fd5b6001600160a01b03811661091557600080fd5b600280546001600160a01b0319166001600160a01b0392909216919091179055565b6002546001600160a01b0316336001600160a01b03161461095757600080fd5b6001600160a01b03811661096a57600080fd5b600580546001600160a01b0319166001600160a01b0392909216919091179055565b600654600160a01b900460ff16156109b65760405162461bcd60e51b81526004016104a79061108d565b6109c1828234610b78565b6109cc823383610d16565b5050565b600654600160a01b900460ff16156109fa5760405162461bcd60e51b81526004016104a79061108d565b33610a06848285610d96565b610a6b5760405162461bcd60e51b815260206004820152603060248201527f4e424d61726b6574706c6163653a2053656c6c657220646f6573206e6f74206f60448201526f1ddb881cdc1958da599a59590813919560821b60648201526084016104a7565b610a76848285610e1c565b604080516060810182526001600160a01b03831681526001600160801b03841660208201524291810191909152610aaf85858385610e5a565b5050505050565b6002546001600160a01b0316336001600160a01b03161480610aeb57506005546001600160a01b0316336001600160a01b0316145b610af457600080fd5b6001600160a01b038116610b0757600080fd5b600480546001600160a01b0319166001600160a01b0392909216919091179055565b610b3282610f02565b610b3d838284610d16565b60405182906001600160a01b038516907f8b0a052bd72fec557d5735593db719bcb565d7afec8d76ee165e317e8cc9840990600090a3505050565b600082815260016020818152604092839020835160608101855281546001600160a01b03168152928101546001600160801b031691830191909152600281015491909201819052610c1c5760405162461bcd60e51b815260206004820152602860248201527f466978656450726963653a20537065636966696564204e4654206973206e6f74604482015267206f6e2073616c6560c01b60648201526084016104a7565b60018101546001600160801b03908116908316811115610c3b57600080fd5b81546001600160a01b0316610c4f85610f02565b6001600160801b03821615610cb7576000610c6983610f37565b610c7390846110cd565b6040519091506001600160a01b038316906001600160801b03831680156108fc02916000818181858888f19350505050158015610cb4573d6000803e3d6000fd5b50505b604080516001600160801b03841681526001600160a01b0383811660208301523382840152915187928916917f599999e3b1327df96cf7ac756ceaa3efbb71b2f020d3ec9b3fc0a30104a9af8f919081900360600190a3505050505050565b6040516376b82a9160e01b81523060048201526001600160a01b0383811660248301526044820183905260806064830152600060848301528491908216906376b82a919060a4015b600060405180830381600087803b158015610d7857600080fd5b505af1158015610d8c573d6000803e3d6000fd5b5050505050505050565b6040516331a9108f60e11b81526004810182905260009084906001600160a01b038086169190831690636352211e90602401602060405180830381865afa158015610de5573d6000803e3d6000fd5b505050506040513d601f19601f82011682018060405250810190610e0991906110f5565b6001600160a01b03161495945050505050565b604051632142170760e11b81526001600160a01b038381166004830152306024830152604482018390528491908216906342842e0e90606401610d5e565b600083815260016020818152604092839020855181546001600160a01b0319166001600160a01b039182161782558683015193820180546001600160801b0319166001600160801b0390951694851790558685015160029092018290558451938452918301528381169282019290925284918616907fe22336ac5f0478032ab859c3ec0caa3aa68c0868ab0e51b6346626d3b03b73119060600160405180910390a350505050565b6000908152600160208190526040822080546001600160a01b031916815590810180546001600160801b031916905560020155565b60008054606490610f559061ffff8082169162010000900416611112565b610f639061ffff1684611138565b610f6d9190611167565b92915050565b6001600160a01b0381168114610f8857600080fd5b50565b60008060408385031215610f9e57600080fd5b8235610fa981610f73565b946020939093013593505050565b600060208284031215610fc957600080fd5b5035919050565b600060208284031215610fe257600080fd5b8135610fed81610f73565b9392505050565b60008060006060848603121561100957600080fd5b833561101481610f73565b92506020840135915060408401356001600160801b038116811461103757600080fd5b809150509250925092565b6020808252602b908201527f4e424d61726b6574706c6163653a20537065636966696564204e46542069732060408201526a6e6f74206f6e2073616c6560a81b606082015260800190565b60208082526010908201526f14185d5cd8589b194e881c185d5cd95960821b604082015260600190565b634e487b7160e01b600052601160045260246000fd5b60006001600160801b03838116908316818110156110ed576110ed6110b7565b039392505050565b60006020828403121561110757600080fd5b8151610fed81610f73565b600061ffff80831681851680830382111561112f5761112f6110b7565b01949350505050565b60006001600160801b038083168185168183048111821515161561115e5761115e6110b7565b02949350505050565b60006001600160801b038084168061118f57634e487b7160e01b600052601260045260246000fd5b9216919091049291505056fea26469706673582212205015c1e7adb0ef9b96c296eb71838566510d70837b788119161dbd4fed3e83b764736f6c634300080b0033",
    "sourcePath": "c:/Users/suwan/OneDrive/Desktop/School Stuff/CODE Uni/BSC/nbc-contracts/contracts/implementation/NBMarketplace.sol",
    "compiler": {
        "name": "solc",
        "version": "0.8.11+commit.d7f03943"
    },
    "functionHashes": {
        "admin()": "f851a440",
        "burner()": "27810b6e",
        "buy(address,uint256)": "cce7ec13",
        "cancelSale(address,uint256)": "16f3a95b",
        "cancelSaleWhenPaused(address,uint256)": "90dd2423",
        "ceo()": "908921fc",
        "createSale(address,uint256,uint128)": "ceb02f6e",
        "devCut()": "9c286837",
        "getFPSale(uint256)": "25f5e5f5",
        "manager()": "481c6a75",
        "minter()": "07546172",
        "newAdmin(address)": "a6ba31c1",
        "newBurner(address)": "f840f72b",
        "newCEO(address)": "a9917dbe",
        "newManager(address)": "906e9400",
        "newMinter(address)": "57341912",
        "pause()": "8456cb59",
        "paused()": "5c975abb",
        "sales(uint256)": "b5f522f7",
        "salesFee()": "b050191f",
        "unpause()": "3f4ba83a"
    },
    "gasEstimates": {
        "creation": {
            "codeDepositCost": "912200",
            "executionCost": "infinite",
            "totalCost": "infinite"
        },
        "external": {
            "admin()": "2458",
            "burner()": "2416",
            "buy(address,uint256)": "infinite",
            "cancelSale(address,uint256)": "infinite",
            "cancelSaleWhenPaused(address,uint256)": "infinite",
            "ceo()": "2349",
            "createSale(address,uint256,uint128)": "infinite",
            "devCut()": "2391",
            "getFPSale(uint256)": "13352",
            "manager()": "2349",
            "minter()": "2350",
            "newAdmin(address)": "26847",
            "newBurner(address)": "29031",
            "newCEO(address)": "26869",
            "newManager(address)": "29032",
            "newMinter(address)": "28966",
            "pause()": "29862",
            "paused()": "2376",
            "sales(uint256)": "6847",
            "salesFee()": "2335",
            "unpause()": "29856"
        }
    }
}