{
    "contractName": "NBMonMinting",
    "abi": [
        {
            "anonymous": false,
            "inputs": [
                {
                    "indexed": true,
                    "internalType": "address",
                    "name": "owner",
                    "type": "address"
                },
                {
                    "indexed": true,
                    "internalType": "address",
                    "name": "approved",
                    "type": "address"
                },
                {
                    "indexed": true,
                    "internalType": "uint256",
                    "name": "tokenId",
                    "type": "uint256"
                }
            ],
            "name": "Approval",
            "type": "event"
        },
        {
            "anonymous": false,
            "inputs": [
                {
                    "indexed": true,
                    "internalType": "address",
                    "name": "owner",
                    "type": "address"
                },
                {
                    "indexed": true,
                    "internalType": "address",
                    "name": "operator",
                    "type": "address"
                },
                {
                    "indexed": false,
                    "internalType": "bool",
                    "name": "approved",
                    "type": "bool"
                }
            ],
            "name": "ApprovalForAll",
            "type": "event"
        },
        {
            "anonymous": false,
            "inputs": [
                {
                    "indexed": true,
                    "internalType": "uint256",
                    "name": "_nbmonId",
                    "type": "uint256"
                }
            ],
            "name": "NBMonBurned",
            "type": "event"
        },
        {
            "anonymous": false,
            "inputs": [
                {
                    "indexed": true,
                    "internalType": "uint256",
                    "name": "_nbmonId",
                    "type": "uint256"
                },
                {
                    "indexed": true,
                    "internalType": "address",
                    "name": "_owner",
                    "type": "address"
                }
            ],
            "name": "NBMonMinted",
            "type": "event"
        },
        {
            "anonymous": false,
            "inputs": [
                {
                    "indexed": false,
                    "internalType": "address",
                    "name": "account",
                    "type": "address"
                }
            ],
            "name": "Paused",
            "type": "event"
        },
        {
            "anonymous": false,
            "inputs": [
                {
                    "indexed": true,
                    "internalType": "address",
                    "name": "from",
                    "type": "address"
                },
                {
                    "indexed": true,
                    "internalType": "address",
                    "name": "to",
                    "type": "address"
                },
                {
                    "indexed": true,
                    "internalType": "uint256",
                    "name": "tokenId",
                    "type": "uint256"
                }
            ],
            "name": "Transfer",
            "type": "event"
        },
        {
            "anonymous": false,
            "inputs": [
                {
                    "indexed": false,
                    "internalType": "address",
                    "name": "account",
                    "type": "address"
                }
            ],
            "name": "Unpaused",
            "type": "event"
        },
        {
            "inputs": [],
            "name": "_baseEvolutionDuration",
            "outputs": [
                {
                    "internalType": "uint32",
                    "name": "",
                    "type": "uint32"
                }
            ],
            "stateMutability": "view",
            "type": "function"
        },
        {
            "inputs": [],
            "name": "_maxFertilityPoints",
            "outputs": [
                {
                    "internalType": "uint16",
                    "name": "",
                    "type": "uint16"
                }
            ],
            "stateMutability": "view",
            "type": "function"
        },
        {
            "inputs": [],
            "name": "_maxPotential",
            "outputs": [
                {
                    "internalType": "uint8",
                    "name": "",
                    "type": "uint8"
                }
            ],
            "stateMutability": "view",
            "type": "function"
        },
        {
            "inputs": [],
            "name": "_mutationChance",
            "outputs": [
                {
                    "internalType": "uint16",
                    "name": "",
                    "type": "uint16"
                }
            ],
            "stateMutability": "view",
            "type": "function"
        },
        {
            "inputs": [],
            "name": "_mutationTypes",
            "outputs": [
                {
                    "internalType": "uint8",
                    "name": "",
                    "type": "uint8"
                }
            ],
            "stateMutability": "view",
            "type": "function"
        },
        {
            "inputs": [],
            "name": "_oneParentMutationChance",
            "outputs": [
                {
                    "internalType": "uint16",
                    "name": "",
                    "type": "uint16"
                }
            ],
            "stateMutability": "view",
            "type": "function"
        },
        {
            "inputs": [],
            "name": "_rarityChance",
            "outputs": [
                {
                    "internalType": "uint16",
                    "name": "",
                    "type": "uint16"
                }
            ],
            "stateMutability": "view",
            "type": "function"
        },
        {
            "inputs": [],
            "name": "_totalGenders",
            "outputs": [
                {
                    "internalType": "uint8",
                    "name": "",
                    "type": "uint8"
                }
            ],
            "stateMutability": "view",
            "type": "function"
        },
        {
            "inputs": [],
            "name": "_totalGenera",
            "outputs": [
                {
                    "internalType": "uint16",
                    "name": "",
                    "type": "uint16"
                }
            ],
            "stateMutability": "view",
            "type": "function"
        },
        {
            "inputs": [],
            "name": "_totalPassives",
            "outputs": [
                {
                    "internalType": "uint16",
                    "name": "",
                    "type": "uint16"
                }
            ],
            "stateMutability": "view",
            "type": "function"
        },
        {
            "inputs": [],
            "name": "_totalSpecies",
            "outputs": [
                {
                    "internalType": "uint8",
                    "name": "",
                    "type": "uint8"
                }
            ],
            "stateMutability": "view",
            "type": "function"
        },
        {
            "inputs": [],
            "name": "_totalTypes",
            "outputs": [
                {
                    "internalType": "uint8",
                    "name": "",
                    "type": "uint8"
                }
            ],
            "stateMutability": "view",
            "type": "function"
        },
        {
            "inputs": [],
            "name": "_twoParentsMutationChance",
            "outputs": [
                {
                    "internalType": "uint16",
                    "name": "",
                    "type": "uint16"
                }
            ],
            "stateMutability": "view",
            "type": "function"
        },
        {
            "inputs": [],
            "name": "admin",
            "outputs": [
                {
                    "internalType": "address",
                    "name": "",
                    "type": "address"
                }
            ],
            "stateMutability": "view",
            "type": "function"
        },
        {
            "inputs": [
                {
                    "internalType": "address",
                    "name": "to",
                    "type": "address"
                },
                {
                    "internalType": "uint256",
                    "name": "tokenId",
                    "type": "uint256"
                }
            ],
            "name": "approve",
            "outputs": [],
            "stateMutability": "nonpayable",
            "type": "function"
        },
        {
            "inputs": [
                {
                    "internalType": "address",
                    "name": "owner",
                    "type": "address"
                }
            ],
            "name": "balanceOf",
            "outputs": [
                {
                    "internalType": "uint256",
                    "name": "",
                    "type": "uint256"
                }
            ],
            "stateMutability": "view",
            "type": "function"
        },
        {
            "inputs": [
                {
                    "internalType": "uint256",
                    "name": "_nbmonId",
                    "type": "uint256"
                }
            ],
            "name": "burnNBMon",
            "outputs": [],
            "stateMutability": "nonpayable",
            "type": "function"
        },
        {
            "inputs": [],
            "name": "burner",
            "outputs": [
                {
                    "internalType": "address",
                    "name": "",
                    "type": "address"
                }
            ],
            "stateMutability": "view",
            "type": "function"
        },
        {
            "inputs": [],
            "name": "ceo",
            "outputs": [
                {
                    "internalType": "address",
                    "name": "",
                    "type": "address"
                }
            ],
            "stateMutability": "view",
            "type": "function"
        },
        {
            "inputs": [
                {
                    "internalType": "uint32",
                    "name": "baseEvolutionDuration_",
                    "type": "uint32"
                }
            ],
            "name": "changeBaseEvolutionDuration",
            "outputs": [],
            "stateMutability": "nonpayable",
            "type": "function"
        },
        {
            "inputs": [
                {
                    "internalType": "uint16",
                    "name": "maxFertilityPoints_",
                    "type": "uint16"
                }
            ],
            "name": "changeMaxFertilityPoints",
            "outputs": [],
            "stateMutability": "nonpayable",
            "type": "function"
        },
        {
            "inputs": [
                {
                    "internalType": "uint8",
                    "name": "maxPotential_",
                    "type": "uint8"
                }
            ],
            "name": "changeMaxPotential",
            "outputs": [],
            "stateMutability": "nonpayable",
            "type": "function"
        },
        {
            "inputs": [
                {
                    "internalType": "uint16",
                    "name": "mutationChance_",
                    "type": "uint16"
                }
            ],
            "name": "changeMutationChance",
            "outputs": [],
            "stateMutability": "nonpayable",
            "type": "function"
        },
        {
            "inputs": [
                {
                    "internalType": "uint8",
                    "name": "mutationTypes_",
                    "type": "uint8"
                }
            ],
            "name": "changeMutationTypes",
            "outputs": [],
            "stateMutability": "nonpayable",
            "type": "function"
        },
        {
            "inputs": [
                {
                    "internalType": "uint16",
                    "name": "rarityChance_",
                    "type": "uint16"
                }
            ],
            "name": "changeRarityChance",
            "outputs": [],
            "stateMutability": "nonpayable",
            "type": "function"
        },
        {
            "inputs": [
                {
                    "internalType": "uint8",
                    "name": "totalGenders_",
                    "type": "uint8"
                }
            ],
            "name": "changeTotalGenders",
            "outputs": [],
            "stateMutability": "nonpayable",
            "type": "function"
        },
        {
            "inputs": [
                {
                    "internalType": "uint16",
                    "name": "totalGenera_",
                    "type": "uint16"
                }
            ],
            "name": "changeTotalGenera",
            "outputs": [],
            "stateMutability": "nonpayable",
            "type": "function"
        },
        {
            "inputs": [
                {
                    "internalType": "uint8",
                    "name": "totalSpecies_",
                    "type": "uint8"
                }
            ],
            "name": "changeTotalSpecies",
            "outputs": [],
            "stateMutability": "nonpayable",
            "type": "function"
        },
        {
            "inputs": [
                {
                    "internalType": "uint8",
                    "name": "totalTypes_",
                    "type": "uint8"
                }
            ],
            "name": "changeTypes",
            "outputs": [],
            "stateMutability": "nonpayable",
            "type": "function"
        },
        {
            "inputs": [],
            "name": "currentNBMonCount",
            "outputs": [
                {
                    "internalType": "uint256",
                    "name": "",
                    "type": "uint256"
                }
            ],
            "stateMutability": "view",
            "type": "function"
        },
        {
            "inputs": [
                {
                    "internalType": "address",
                    "name": "_owner",
                    "type": "address"
                }
            ],
            "name": "getAllNBMonsOfOwner",
            "outputs": [
                {
                    "components": [
                        {
                            "internalType": "uint256",
                            "name": "nbmonId",
                            "type": "uint256"
                        },
                        {
                            "internalType": "address",
                            "name": "owner",
                            "type": "address"
                        },
                        {
                            "internalType": "uint256",
                            "name": "bornAt",
                            "type": "uint256"
                        },
                        {
                            "internalType": "uint256",
                            "name": "transferredAt",
                            "type": "uint256"
                        },
                        {
                            "internalType": "uint32[]",
                            "name": "nbmonStats",
                            "type": "uint32[]"
                        },
                        {
                            "internalType": "uint8[]",
                            "name": "types",
                            "type": "uint8[]"
                        },
                        {
                            "internalType": "uint8[]",
                            "name": "potential",
                            "type": "uint8[]"
                        },
                        {
                            "internalType": "uint16[]",
                            "name": "passives",
                            "type": "uint16[]"
                        },
                        {
                            "internalType": "uint8[]",
                            "name": "inheritedPassives",
                            "type": "uint8[]"
                        },
                        {
                            "internalType": "uint8[]",
                            "name": "inheritedMoves",
                            "type": "uint8[]"
                        },
                        {
                            "internalType": "bool",
                            "name": "isEgg",
                            "type": "bool"
                        }
                    ],
                    "internalType": "struct NBMonCore.NBMon[]",
                    "name": "",
                    "type": "tuple[]"
                }
            ],
            "stateMutability": "view",
            "type": "function"
        },
        {
            "inputs": [
                {
                    "internalType": "uint256",
                    "name": "tokenId",
                    "type": "uint256"
                }
            ],
            "name": "getApproved",
            "outputs": [
                {
                    "internalType": "address",
                    "name": "",
                    "type": "address"
                }
            ],
            "stateMutability": "view",
            "type": "function"
        },
        {
            "inputs": [
                {
                    "internalType": "uint256",
                    "name": "_nbmonId",
                    "type": "uint256"
                }
            ],
            "name": "getBornAt",
            "outputs": [
                {
                    "internalType": "uint256",
                    "name": "",
                    "type": "uint256"
                }
            ],
            "stateMutability": "view",
            "type": "function"
        },
        {
            "inputs": [
                {
                    "internalType": "uint256",
                    "name": "_nbmonId",
                    "type": "uint256"
                }
            ],
            "name": "getInheritedMoves",
            "outputs": [
                {
                    "internalType": "uint8[]",
                    "name": "",
                    "type": "uint8[]"
                }
            ],
            "stateMutability": "view",
            "type": "function"
        },
        {
            "inputs": [
                {
                    "internalType": "uint256",
                    "name": "_nbmonId",
                    "type": "uint256"
                }
            ],
            "name": "getInheritedPassives",
            "outputs": [
                {
                    "internalType": "uint8[]",
                    "name": "",
                    "type": "uint8[]"
                }
            ],
            "stateMutability": "view",
            "type": "function"
        },
        {
            "inputs": [
                {
                    "internalType": "uint256",
                    "name": "_nbmonId",
                    "type": "uint256"
                }
            ],
            "name": "getNBMon",
            "outputs": [
                {
                    "components": [
                        {
                            "internalType": "uint256",
                            "name": "nbmonId",
                            "type": "uint256"
                        },
                        {
                            "internalType": "address",
                            "name": "owner",
                            "type": "address"
                        },
                        {
                            "internalType": "uint256",
                            "name": "bornAt",
                            "type": "uint256"
                        },
                        {
                            "internalType": "uint256",
                            "name": "transferredAt",
                            "type": "uint256"
                        },
                        {
                            "internalType": "uint32[]",
                            "name": "nbmonStats",
                            "type": "uint32[]"
                        },
                        {
                            "internalType": "uint8[]",
                            "name": "types",
                            "type": "uint8[]"
                        },
                        {
                            "internalType": "uint8[]",
                            "name": "potential",
                            "type": "uint8[]"
                        },
                        {
                            "internalType": "uint16[]",
                            "name": "passives",
                            "type": "uint16[]"
                        },
                        {
                            "internalType": "uint8[]",
                            "name": "inheritedPassives",
                            "type": "uint8[]"
                        },
                        {
                            "internalType": "uint8[]",
                            "name": "inheritedMoves",
                            "type": "uint8[]"
                        },
                        {
                            "internalType": "bool",
                            "name": "isEgg",
                            "type": "bool"
                        }
                    ],
                    "internalType": "struct NBMonCore.NBMon",
                    "name": "",
                    "type": "tuple"
                }
            ],
            "stateMutability": "view",
            "type": "function"
        },
        {
            "inputs": [
                {
                    "internalType": "uint256",
                    "name": "_nbmonId",
                    "type": "uint256"
                }
            ],
            "name": "getNbmonStats",
            "outputs": [
                {
                    "internalType": "uint32[]",
                    "name": "",
                    "type": "uint32[]"
                }
            ],
            "stateMutability": "view",
            "type": "function"
        },
        {
            "inputs": [
                {
                    "internalType": "address",
                    "name": "_owner",
                    "type": "address"
                }
            ],
            "name": "getOwnerNBMonCount",
            "outputs": [
                {
                    "internalType": "uint256",
                    "name": "",
                    "type": "uint256"
                }
            ],
            "stateMutability": "view",
            "type": "function"
        },
        {
            "inputs": [
                {
                    "internalType": "address",
                    "name": "_owner",
                    "type": "address"
                }
            ],
            "name": "getOwnerNBMonIds",
            "outputs": [
                {
                    "internalType": "uint256[]",
                    "name": "",
                    "type": "uint256[]"
                }
            ],
            "stateMutability": "view",
            "type": "function"
        },
        {
            "inputs": [
                {
                    "internalType": "uint256",
                    "name": "_nbmonId",
                    "type": "uint256"
                }
            ],
            "name": "getPassives",
            "outputs": [
                {
                    "internalType": "uint16[]",
                    "name": "",
                    "type": "uint16[]"
                }
            ],
            "stateMutability": "view",
            "type": "function"
        },
        {
            "inputs": [
                {
                    "internalType": "uint256",
                    "name": "_nbmonId",
                    "type": "uint256"
                }
            ],
            "name": "getPotential",
            "outputs": [
                {
                    "internalType": "uint8[]",
                    "name": "",
                    "type": "uint8[]"
                }
            ],
            "stateMutability": "view",
            "type": "function"
        },
        {
            "inputs": [
                {
                    "internalType": "uint256",
                    "name": "_nbmonId",
                    "type": "uint256"
                }
            ],
            "name": "getTransferredAt",
            "outputs": [
                {
                    "internalType": "uint256",
                    "name": "",
                    "type": "uint256"
                }
            ],
            "stateMutability": "view",
            "type": "function"
        },
        {
            "inputs": [
                {
                    "internalType": "uint256",
                    "name": "_nbmonId",
                    "type": "uint256"
                }
            ],
            "name": "getTypes",
            "outputs": [
                {
                    "internalType": "uint8[]",
                    "name": "",
                    "type": "uint8[]"
                }
            ],
            "stateMutability": "view",
            "type": "function"
        },
        {
            "inputs": [
                {
                    "internalType": "uint32",
                    "name": "_genus",
                    "type": "uint32"
                }
            ],
            "name": "getTypesOfGenus",
            "outputs": [
                {
                    "internalType": "uint8[]",
                    "name": "",
                    "type": "uint8[]"
                }
            ],
            "stateMutability": "view",
            "type": "function"
        },
        {
            "inputs": [
                {
                    "internalType": "address",
                    "name": "owner",
                    "type": "address"
                },
                {
                    "internalType": "address",
                    "name": "operator",
                    "type": "address"
                }
            ],
            "name": "isApprovedForAll",
            "outputs": [
                {
                    "internalType": "bool",
                    "name": "",
                    "type": "bool"
                }
            ],
            "stateMutability": "view",
            "type": "function"
        },
        {
            "inputs": [],
            "name": "manager",
            "outputs": [
                {
                    "internalType": "address",
                    "name": "",
                    "type": "address"
                }
            ],
            "stateMutability": "view",
            "type": "function"
        },
        {
            "inputs": [
                {
                    "internalType": "uint256",
                    "name": "_randomNumber",
                    "type": "uint256"
                },
                {
                    "internalType": "address",
                    "name": "_owner",
                    "type": "address"
                }
            ],
            "name": "mintOrigin",
            "outputs": [],
            "stateMutability": "nonpayable",
            "type": "function"
        },
        {
            "inputs": [
                {
                    "internalType": "uint256",
                    "name": "_randomNumber",
                    "type": "uint256"
                },
                {
                    "internalType": "uint32",
                    "name": "_gender",
                    "type": "uint32"
                },
                {
                    "internalType": "uint32",
                    "name": "_mutation",
                    "type": "uint32"
                },
                {
                    "internalType": "uint32",
                    "name": "_genus",
                    "type": "uint32"
                },
                {
                    "internalType": "address",
                    "name": "_owner",
                    "type": "address"
                }
            ],
            "name": "mintWild",
            "outputs": [],
            "stateMutability": "nonpayable",
            "type": "function"
        },
        {
            "inputs": [],
            "name": "minter",
            "outputs": [
                {
                    "internalType": "address",
                    "name": "",
                    "type": "address"
                }
            ],
            "stateMutability": "view",
            "type": "function"
        },
        {
            "inputs": [],
            "name": "name",
            "outputs": [
                {
                    "internalType": "string",
                    "name": "",
                    "type": "string"
                }
            ],
            "stateMutability": "view",
            "type": "function"
        },
        {
            "inputs": [
                {
                    "internalType": "address",
                    "name": "_newAdmin",
                    "type": "address"
                }
            ],
            "name": "newAdmin",
            "outputs": [],
            "stateMutability": "nonpayable",
            "type": "function"
        },
        {
            "inputs": [
                {
                    "internalType": "address",
                    "name": "_newBurner",
                    "type": "address"
                }
            ],
            "name": "newBurner",
            "outputs": [],
            "stateMutability": "nonpayable",
            "type": "function"
        },
        {
            "inputs": [
                {
                    "internalType": "address",
                    "name": "_newCEO",
                    "type": "address"
                }
            ],
            "name": "newCEO",
            "outputs": [],
            "stateMutability": "nonpayable",
            "type": "function"
        },
        {
            "inputs": [
                {
                    "internalType": "address",
                    "name": "_newManager",
                    "type": "address"
                }
            ],
            "name": "newManager",
            "outputs": [],
            "stateMutability": "nonpayable",
            "type": "function"
        },
        {
            "inputs": [
                {
                    "internalType": "address",
                    "name": "_newMinter",
                    "type": "address"
                }
            ],
            "name": "newMinter",
            "outputs": [],
            "stateMutability": "nonpayable",
            "type": "function"
        },
        {
            "inputs": [
                {
                    "internalType": "uint256",
                    "name": "tokenId",
                    "type": "uint256"
                }
            ],
            "name": "ownerOf",
            "outputs": [
                {
                    "internalType": "address",
                    "name": "",
                    "type": "address"
                }
            ],
            "stateMutability": "view",
            "type": "function"
        },
        {
            "inputs": [],
            "name": "pause",
            "outputs": [],
            "stateMutability": "nonpayable",
            "type": "function"
        },
        {
            "inputs": [],
            "name": "paused",
            "outputs": [
                {
                    "internalType": "bool",
                    "name": "",
                    "type": "bool"
                }
            ],
            "stateMutability": "view",
            "type": "function"
        },
        {
            "inputs": [
                {
                    "internalType": "address",
                    "name": "from",
                    "type": "address"
                },
                {
                    "internalType": "address",
                    "name": "to",
                    "type": "address"
                },
                {
                    "internalType": "uint256",
                    "name": "tokenId",
                    "type": "uint256"
                },
                {
                    "internalType": "bytes",
                    "name": "_data",
                    "type": "bytes"
                }
            ],
            "name": "safeTransfer",
            "outputs": [],
            "stateMutability": "nonpayable",
            "type": "function"
        },
        {
            "inputs": [
                {
                    "internalType": "address",
                    "name": "from",
                    "type": "address"
                },
                {
                    "internalType": "address",
                    "name": "to",
                    "type": "address"
                },
                {
                    "internalType": "uint256",
                    "name": "tokenId",
                    "type": "uint256"
                }
            ],
            "name": "safeTransferFrom",
            "outputs": [],
            "stateMutability": "nonpayable",
            "type": "function"
        },
        {
            "inputs": [
                {
                    "internalType": "address",
                    "name": "from",
                    "type": "address"
                },
                {
                    "internalType": "address",
                    "name": "to",
                    "type": "address"
                },
                {
                    "internalType": "uint256",
                    "name": "tokenId",
                    "type": "uint256"
                },
                {
                    "internalType": "bytes",
                    "name": "_data",
                    "type": "bytes"
                }
            ],
            "name": "safeTransferFrom",
            "outputs": [],
            "stateMutability": "nonpayable",
            "type": "function"
        },
        {
            "inputs": [
                {
                    "internalType": "address",
                    "name": "operator",
                    "type": "address"
                },
                {
                    "internalType": "bool",
                    "name": "approved",
                    "type": "bool"
                }
            ],
            "name": "setApprovalForAll",
            "outputs": [],
            "stateMutability": "nonpayable",
            "type": "function"
        },
        {
            "inputs": [
                {
                    "internalType": "string",
                    "name": "newBaseURI",
                    "type": "string"
                }
            ],
            "name": "setBaseURI",
            "outputs": [],
            "stateMutability": "nonpayable",
            "type": "function"
        },
        {
            "inputs": [
                {
                    "internalType": "bytes4",
                    "name": "interfaceId",
                    "type": "bytes4"
                }
            ],
            "name": "supportsInterface",
            "outputs": [
                {
                    "internalType": "bool",
                    "name": "",
                    "type": "bool"
                }
            ],
            "stateMutability": "view",
            "type": "function"
        },
        {
            "inputs": [],
            "name": "symbol",
            "outputs": [
                {
                    "internalType": "string",
                    "name": "",
                    "type": "string"
                }
            ],
            "stateMutability": "view",
            "type": "function"
        },
        {
            "inputs": [
                {
                    "internalType": "uint256",
                    "name": "index",
                    "type": "uint256"
                }
            ],
            "name": "tokenByIndex",
            "outputs": [
                {
                    "internalType": "uint256",
                    "name": "",
                    "type": "uint256"
                }
            ],
            "stateMutability": "view",
            "type": "function"
        },
        {
            "inputs": [
                {
                    "internalType": "address",
                    "name": "owner",
                    "type": "address"
                },
                {
                    "internalType": "uint256",
                    "name": "index",
                    "type": "uint256"
                }
            ],
            "name": "tokenOfOwnerByIndex",
            "outputs": [
                {
                    "internalType": "uint256",
                    "name": "",
                    "type": "uint256"
                }
            ],
            "stateMutability": "view",
            "type": "function"
        },
        {
            "inputs": [
                {
                    "internalType": "uint256",
                    "name": "tokenId",
                    "type": "uint256"
                }
            ],
            "name": "tokenURI",
            "outputs": [
                {
                    "internalType": "string",
                    "name": "",
                    "type": "string"
                }
            ],
            "stateMutability": "view",
            "type": "function"
        },
        {
            "inputs": [],
            "name": "totalSupply",
            "outputs": [
                {
                    "internalType": "uint256",
                    "name": "",
                    "type": "uint256"
                }
            ],
            "stateMutability": "view",
            "type": "function"
        },
        {
            "inputs": [
                {
                    "internalType": "address",
                    "name": "from",
                    "type": "address"
                },
                {
                    "internalType": "address",
                    "name": "to",
                    "type": "address"
                },
                {
                    "internalType": "uint256",
                    "name": "tokenId",
                    "type": "uint256"
                }
            ],
            "name": "transfer",
            "outputs": [],
            "stateMutability": "nonpayable",
            "type": "function"
        },
        {
            "inputs": [
                {
                    "internalType": "address",
                    "name": "from",
                    "type": "address"
                },
                {
                    "internalType": "address",
                    "name": "to",
                    "type": "address"
                },
                {
                    "internalType": "uint256",
                    "name": "tokenId",
                    "type": "uint256"
                }
            ],
            "name": "transferFrom",
            "outputs": [],
            "stateMutability": "nonpayable",
            "type": "function"
        },
        {
            "inputs": [],
            "name": "unpause",
            "outputs": [],
            "stateMutability": "nonpayable",
            "type": "function"
        },
        {
            "inputs": [
                {
                    "internalType": "uint32",
                    "name": "_genus",
                    "type": "uint32"
                },
                {
                    "internalType": "uint8",
                    "name": "_typeOne",
                    "type": "uint8"
                },
                {
                    "internalType": "uint8",
                    "name": "_typeTwo",
                    "type": "uint8"
                }
            ],
            "name": "updateTypesOfGenus",
            "outputs": [],
            "stateMutability": "nonpayable",
            "type": "function"
        }
    ],
    "bytecode": "60806040526001601655601780546001600160b81b0319167503f4800bb84100180d000b0304000a006403e803e8021790553480156200003e57600080fd5b5060405180604001604052806005815260200164272126b7b760d91b81525060405180604001604052806005815260200164272126a7a760d91b8152506200008b6200054060201b60201c565b600080546001600160a01b0319166001600160a01b0392909216919091179055620000b33390565b600180546001600160a01b0319166001600160a01b0392909216919091179055620000db3390565b600280546001600160a01b0319166001600160a01b0392909216919091179055620001033390565b600380546001600160a01b0319166001600160a01b03929092169190911790556200012b3390565b600480546001600160a81b0319166001600160a01b03929092169190911790558151620001609060059060208501906200059d565b508051620001769060069060208401906200059d565b505060408051808201909152601b81527f68747470733a2f2f6e62636f6d70616e792e696f2f6e626d6f6e2f00000000006020820152620001b8915062000544565b6040805180820190915260048152600f60208083019190915260016000526015905262000209907f27739e4bb5e6f8b5e4b57a047dca8767cc9b982a011081e086cbb0dfa9de818d9060026200062c565b5060408051808201909152600280825260056020808401919091526000829052601590526200025a917f07d4ff730d9753101d832555708a37d38c2c45fce8cacaefc99f06074e93fe0b916200062c565b50604080518082019091526006815260006020808301829052600390915260159052620002ab907fb3a65e8276bd33b3e4f7d6081ebd9899187264822358758dca2e2bc37b2a9c279060026200062c565b5060408051808201909152600b8152600d602080830191909152600460005260159052620002fd907f8191f4eb6b8bafbfe9a5389c8d07d7f5fd81137a7ee653fc4358269845ee1d2e9060026200062c565b506040805180820190915260098152600060208083018290526005909152601590526200034e907fbab719002e4be320868650dc7456e9a1d245e4d5dd64765588e2f21529d871d39060026200062c565b50604080518082019091526002808252600060208084018290526006909152601590526200039e917f25847c9ccf691da811a9f934d6b3b92e6062ef92feb71bf4cb08cbb4fad8d652916200062c565b50604080518082019091526001815260006020808301829052600790915260159052620003ef907f5d0f48e37dc1225cdee8d6f2a0315d796f55423522fe638d7d95421802dfc0069060026200062c565b506040805180820190915260078152600860208083018290526000919091526015905262000441907f2d0e46a571fdfbe57c7c718891a8a12999c102dfffa2b3314ea165dedd1684f59060026200062c565b50604080518082019091526009808252600f6020808401919091526000919091526015905262000495907f497613c0658032a90a449a944031c57b1d03996c3a6148fe12146c45cf3214009060026200062c565b5060408051808201909152600581526009602080830191909152600a60005260159052620004e7907f0cfcac9f3767130657d3b01a9146da544eeb39eb9670066ace5e84da7fc4319f9060026200062c565b506040805180820190915260058152600e602080830191909152600b6000526015905262000539907fcaeae41dfed97dfd8c41876ff591faa3e36cda388621c550caa3321a2a624e5f9060026200062c565b5062000723565b3390565b6000546001600160a01b0316336001600160a01b031614806200057a57506003546001600160a01b0316336001600160a01b0316145b6200058457600080fd5b8051620005999060109060208401906200059d565b5050565b828054620005ab90620006e6565b90600052602060002090601f016020900481019282620005cf57600085556200061a565b82601f10620005ea57805160ff19168380011785556200061a565b828001600101855582156200061a579182015b828111156200061a578251825591602001919060010190620005fd565b5062000628929150620006cf565b5090565b82805482825590600052602060002090601f016020900481019282156200061a5791602002820160005b838211156200069657835183826101000a81548160ff021916908360ff160217905550926020019260010160208160000104928301926001030262000656565b8015620006c55782816101000a81549060ff021916905560010160208160000104928301926001030262000696565b5050620006289291505b5b80821115620006285760008155600101620006d0565b600181811c90821680620006fb57607f821691505b602082108114156200071d57634e487b7160e01b600052602260045260246000fd5b50919050565b61563e80620007336000396000f3fe608060405234801561001057600080fd5b50600436106104335760003560e01c806364cb9deb11610236578063a6ba31c11161013b578063d6e39ada116100c3578063e5ebe14311610087578063e5ebe143146109fe578063e985e9c514610a11578063f6e6e06114610a4d578063f840f72b14610a60578063f851a44014610a7357600080fd5b8063d6e39ada146109a8578063d7ba179a146109bb578063d7f93524146109cf578063daa6cc71146109d8578063dfac24be146109eb57600080fd5b8063b88d4fde1161010a578063b88d4fde14610949578063beabacc81461095c578063c87b56dd1461096f578063cd214b6a14610982578063d49a49cf1461099557600080fd5b8063a6ba31c1146108fb578063a8892ccd1461090e578063a9917dbe14610922578063ad3ba7ed1461093557600080fd5b80638456cb59116101be578063908921fc1161018d578063908921fc146108a15780639142828b146108b457806391a4c241146108cb57806395d89b41146108e0578063a22cb465146108e857600080fd5b80638456cb591461086057806386e70e11146108685780638d77dc241461087b578063906e94001461088e57600080fd5b806373168a391161020557806373168a39146107e15780637392ed1b1461080157806376b82a91146108145780637ed646cc1461082757806380a6146d1461083457600080fd5b806364cb9deb14610786578063683087321461079b5780636b0bb87d146107ae57806370a08231146107ce57600080fd5b80633f4ba83a1161033c5780634f6ccce7116102c4578063573419121161029357806357341912146107195780635c975abb1461072c5780635cad82131461073e5780635fb0f5881461075e5780636352211e1461077357600080fd5b80634f6ccce7146106cd5780635244e900146106e057806353fd1b1b146106f357806355f804b31461070657600080fd5b8063479a506d1161030b578063479a506d14610654578063481c6a7514610674578063498c4a01146106875780634b7cfe811461069a5780634bb1b2e1146106ad57600080fd5b80633f4ba83a1461060657806342842e0e1461060e578063434807ad14610621578063475a6d6c1461064157600080fd5b8063272565ee116103bf5780632cde75381161038e5780632cde75381461058e5780632f745c59146105a157806332cfe95f146105b4578063359930cf146105da5780633d7a0e86146105ed57600080fd5b8063272565ee1461052d57806327555a3c1461054057806327810b6e146105685780632b6183801461057b57600080fd5b8063095ea7b311610406578063095ea7b3146104b357806311e38c5e146104c857806318160ddd146104ff578063194ddb2a1461050757806323b872dd1461051a57600080fd5b806301ffc9a71461043857806306fdde03146104605780630754617214610475578063081812fc146104a0575b600080fd5b61044b610446366004614ca0565b610a86565b60405190151581526020015b60405180910390f35b610468610ab1565b6040516104579190614d15565b600154610488906001600160a01b031681565b6040516001600160a01b039091168152602001610457565b6104886104ae366004614d28565b610b43565b6104c66104c1366004614d5d565b610bd0565b005b6104f16104d6366004614d87565b6001600160a01b031660009081526012602052604090205490565b604051908152602001610457565b600e546104f1565b6104f1610515366004614d28565b610d10565b6104c6610528366004614da2565b610d48565b6104c661053b366004614def565b610da3565b60175461055590600160581b900461ffff1681565b60405161ffff9091168152602001610457565b600254610488906001600160a01b031681565b6104c6610589366004614e0a565b610de3565b6104c661059c366004614e42565b610e25565b6104f16105af366004614d5d565b610e6b565b6017546105c890600160481b900460ff1681565b60405160ff9091168152602001610457565b6104c66105e8366004614def565b610f01565b60175461055590670100000000000000900461ffff1681565b6104c6610f41565b6104c661061c366004614da2565b610ffe565b61063461062f366004614d28565b611043565b6040516104579190614e9b565b6104c661064f366004614e0a565b6110e7565b610667610662366004614d28565b611129565b604051610457919061500e565b600454610488906001600160a01b031681565b6104c6610695366004614e0a565b61155a565b6104c66106a8366004614def565b611598565b6106c06106bb366004614d87565b6115de565b6040516104579190615021565b6104f16106db366004614d28565b61196b565b6104c66106ee366004615083565b6119fe565b610634610701366004614e42565b611a32565b6104c661071436600461516d565b611a9c565b6104c6610727366004614d87565b611af1565b600454600160a01b900460ff1661044b565b61075161074c366004614d87565b611b64565b60405161045791906151b6565b60175461055590600160701b900461ffff1681565b610488610781366004614d28565b611bcf565b601754610555906301000000900461ffff1681565b6106346107a9366004614d28565b611c46565b6107c16107bc366004614d28565b611ccd565b60405161045791906151fa565b6104f16107dc366004614d87565b611d79565b6107f46107ef366004614d28565b611e00565b604051610457919061520d565b6104f161080f366004614d28565b611eb0565b6104c6610822366004615220565b611ee8565b6017546105c89060ff1681565b60175461084b90600160981b900463ffffffff1681565b60405163ffffffff9091168152602001610457565b6104c6611f21565b6104c6610876366004614def565b611fa6565b6104c661088936600461529c565b611fdc565b6104c661089c366004614d87565b612037565b600354610488906001600160a01b031681565b6017546105559065010000000000900461ffff1681565b60175461055590600160881b900461ffff1681565b6104686120aa565b6104c66108f63660046152df565b6120b9565b6104c6610909366004614d87565b6121a8565b6017546105c890600160801b900460ff1681565b6104c6610930366004614d87565b6121fd565b6017546105c890600160681b900460ff1681565b6104c6610957366004615220565b612252565b6104c661096a366004614da2565b6122ae565b61046861097d366004614d28565b612459565b6104c6610990366004614def565b612464565b60175461055590610100900461ffff1681565b6106346109b6366004614d28565b6124a4565b6017546105c890600160501b900460ff1681565b6104f160165481565b6104c66109e6366004614e0a565b61252b565b6106346109f9366004614d28565b61256d565b6104c6610a0c36600461531b565b6125f4565b61044b610a1f366004615347565b6001600160a01b039182166000908152600a6020908152604080832093909416825291909152205460ff1690565b6104c6610a5b366004614d28565b61261e565b6104c6610a6e366004614d87565b612757565b600054610488906001600160a01b031681565b60006001600160e01b03198216631e7c553160e21b1480610aab5750610aab826127ca565b92915050565b606060058054610ac090615371565b80601f0160208091040260200160405190810160405280929190818152602001828054610aec90615371565b8015610b395780601f10610b0e57610100808354040283529160200191610b39565b820191906000526020600020905b815481529060010190602001808311610b1c57829003601f168201915b5050505050905090565b6000610b4e826127ef565b610bb45760405162461bcd60e51b815260206004820152602c60248201527f4245503732313a20617070726f76656420717565727920666f72206e6f6e657860448201526b34b9ba32b73a103a37b5b2b760a11b60648201526084015b60405180910390fd5b506000908152600960205260409020546001600160a01b031690565b600454600160a01b900460ff1615610bfa5760405162461bcd60e51b8152600401610bab906153a6565b6000610c0582611bcf565b9050806001600160a01b0316836001600160a01b03161415610c735760405162461bcd60e51b815260206004820152602160248201527f4245503732313a20617070726f76616c20746f2063757272656e74206f776e656044820152603960f91b6064820152608401610bab565b336001600160a01b0382161480610c8f5750610c8f8133610a1f565b610d015760405162461bcd60e51b815260206004820152603860248201527f4245503732313a20617070726f76652063616c6c6572206973206e6f74206f7760448201527f6e6572206e6f7220617070726f76656420666f7220616c6c00000000000000006064820152608401610bab565b610d0b838361280c565b505050565b60006011610d1f6001846153e6565b81548110610d2f57610d2f6153fd565b90600052602060002090600b0201600301549050919050565b600454600160a01b900460ff1615610d725760405162461bcd60e51b8152600401610bab906153a6565b610d7c338261287a565b610d985760405162461bcd60e51b8152600401610bab90615413565b610d0b8383836122ae565b6000546001600160a01b0316336001600160a01b031614610dc357600080fd5b6017805460ff909216600160801b0260ff60801b19909216919091179055565b6000546001600160a01b0316336001600160a01b031614610e0357600080fd5b6017805461ffff909216600160881b0261ffff60881b19909216919091179055565b6000546001600160a01b0316336001600160a01b031614610e4557600080fd5b6017805463ffffffff909216600160981b0263ffffffff60981b19909216919091179055565b6000610e7683611d79565b8210610ed85760405162461bcd60e51b815260206004820152602b60248201527f424550373231456e756d657261626c653a206f776e657220696e646578206f7560448201526a74206f6620626f756e647360a81b6064820152608401610bab565b506001600160a01b03919091166000908152600c60209081526040808320938352929052205490565b6000546001600160a01b0316336001600160a01b031614610f2157600080fd5b6017805460ff909216600160501b0260ff60501b19909216919091179055565b600454600160a01b900460ff16610f915760405162461bcd60e51b815260206004820152601460248201527314185d5cd8589b194e881b9bdd081c185d5cd95960621b6044820152606401610bab565b6000546001600160a01b0316336001600160a01b031614610fb157600080fd5b6004805460ff60a01b191690557f5db9ee0a495bf2e6ff9c91a7834c1ba4fdd244a5e8aa4e537bd38aeae4b073aa335b6040516001600160a01b03909116815260200160405180910390a1565b600454600160a01b900460ff16156110285760405162461bcd60e51b8152600401610bab906153a6565b610d0b83838360405180602001604052806000815250612252565b606060116110526001846153e6565b81548110611062576110626153fd565b90600052602060002090600b02016006018054806020026020016040519081016040528092919081815260200182805480156110db57602002820191906000526020600020906000905b825461010083900a900460ff168152602060019283018181049485019490930390920291018084116110ac5790505b50505050509050919050565b6000546001600160a01b0316336001600160a01b03161461110757600080fd5b6017805461ffff909216600160581b0261ffff60581b19909216919091179055565b6111916040518061016001604052806000815260200160006001600160a01b0316815260200160008152602001600081526020016060815260200160608152602001606081526020016060815260200160608152602001606081526020016000151581525090565b61119a826127ef565b6112045760405162461bcd60e51b815260206004820152603560248201527f4e424d6f6e436f72653a204e424d6f6e207769746820746865207370656369666044820152741a595908125108191bd95cc81b9bdd08195e1a5cdd605a1b6064820152608401610bab565b60116112116001846153e6565b81548110611221576112216153fd565b60009182526020918290206040805161016081018252600b9093029091018054835260018101546001600160a01b03168385015260028101548383015260038101546060840152600481018054835181870281018701909452808452939491936080860193928301828280156112e257602002820191906000526020600020906000905b82829054906101000a900463ffffffff1663ffffffff16815260200190600401906020826003010492830192600103820291508084116112a55790505b505050505081526020016005820180548060200260200160405190810160405280929190818152602001828054801561135857602002820191906000526020600020906000905b825461010083900a900460ff168152602060019283018181049485019490930390920291018084116113295790505b50505050508152602001600682018054806020026020016040519081016040528092919081815260200182805480156113ce57602002820191906000526020600020906000905b825461010083900a900460ff1681526020600192830181810494850194909303909202910180841161139f5790505b505050505081526020016007820180548060200260200160405190810160405280929190818152602001828054801561144e57602002820191906000526020600020906000905b82829054906101000a900461ffff1661ffff16815260200190600201906020826001010492830192600103820291508084116114155790505b50505050508152602001600882018054806020026020016040519081016040528092919081815260200182805480156114c457602002820191906000526020600020906000905b825461010083900a900460ff168152602060019283018181049485019490930390920291018084116114955790505b505050505081526020016009820180548060200260200160405190810160405280929190818152602001828054801561153a57602002820191906000526020600020906000905b825461010083900a900460ff1681526020600192830181810494850194909303909202910180841161150b5790505b5050509183525050600a919091015460ff16151560209091015292915050565b6000546001600160a01b0316336001600160a01b03161461157a57600080fd5b6017805461ffff9092166101000262ffff0019909216919091179055565b6000546001600160a01b0316336001600160a01b0316146115b857600080fd5b6017805460ff909216600160481b0269ff00000000000000000019909216919091179055565b6001600160a01b0381166000908152601460209081526040808320805482518185028101850190935280835260609492939192909184015b828210156119605760008481526020908190206040805161016081018252600b86029092018054835260018101546001600160a01b03168385015260028101548383015260038101546060840152600481018054835181870281018701909452808452939491936080860193928301828280156116de57602002820191906000526020600020906000905b82829054906101000a900463ffffffff1663ffffffff16815260200190600401906020826003010492830192600103820291508084116116a15790505b505050505081526020016005820180548060200260200160405190810160405280929190818152602001828054801561175457602002820191906000526020600020906000905b825461010083900a900460ff168152602060019283018181049485019490930390920291018084116117255790505b50505050508152602001600682018054806020026020016040519081016040528092919081815260200182805480156117ca57602002820191906000526020600020906000905b825461010083900a900460ff1681526020600192830181810494850194909303909202910180841161179b5790505b505050505081526020016007820180548060200260200160405190810160405280929190818152602001828054801561184a57602002820191906000526020600020906000905b82829054906101000a900461ffff1661ffff16815260200190600201906020826001010492830192600103820291508084116118115790505b50505050508152602001600882018054806020026020016040519081016040528092919081815260200182805480156118c057602002820191906000526020600020906000905b825461010083900a900460ff168152602060019283018181049485019490930390920291018084116118915790505b505050505081526020016009820180548060200260200160405190810160405280929190818152602001828054801561193657602002820191906000526020600020906000905b825461010083900a900460ff168152602060019283018181049485019490930390920291018084116119075790505b5050509183525050600a919091015460ff1615156020918201529082526001929092019101611616565b505050509050919050565b6000611976600e5490565b82106119d95760405162461bcd60e51b815260206004820152602c60248201527f424550373231456e756d657261626c653a20676c6f62616c20696e646578206f60448201526b7574206f6620626f756e647360a01b6064820152608401610bab565b600e82815481106119ec576119ec6153fd565b90600052602060002001549050919050565b6001546001600160a01b0316336001600160a01b031614611a1e57600080fd5b611a2b8585858585612964565b5050505050565b63ffffffff81166000908152601560209081526040918290208054835181840281018401909452808452606093928301828280156110db576000918252602091829020805460ff1684529082028301929091600191018084116110ac575094979650505050505050565b6000546001600160a01b0316336001600160a01b03161480611ad157506003546001600160a01b0316336001600160a01b0316145b611ada57600080fd5b8051611aed9060109060208401906149e6565b5050565b6000546001600160a01b0316336001600160a01b03161480611b2657506003546001600160a01b0316336001600160a01b0316145b611b2f57600080fd5b6001600160a01b038116611b4257600080fd5b600180546001600160a01b0319166001600160a01b0392909216919091179055565b6001600160a01b0381166000908152601360209081526040918290208054835181840281018401909452808452606093928301828280156110db57602002820191906000526020600020905b815481526020019060010190808311611bb05750505050509050919050565b6000818152600760205260408120546001600160a01b031680610aab5760405162461bcd60e51b815260206004820152602960248201527f4245503732313a206f776e657220717565727920666f72206e6f6e657869737460448201526832b73a103a37b5b2b760b91b6064820152608401610bab565b60606011611c556001846153e6565b81548110611c6557611c656153fd565b90600052602060002090600b02016009018054806020026020016040519081016040528092919081815260200182805480156110db576000918252602091829020805460ff1684529082028301929091600191018084116110ac575094979650505050505050565b60606011611cdc6001846153e6565b81548110611cec57611cec6153fd565b90600052602060002090600b02016007018054806020026020016040519081016040528092919081815260200182805480156110db57602002820191906000526020600020906000905b82829054906101000a900461ffff1661ffff1681526020019060020190602082600101049283019260010382029150808411611d36575094979650505050505050565b60006001600160a01b038216611de45760405162461bcd60e51b815260206004820152602a60248201527f4245503732313a2062616c616e636520717565727920666f7220746865207a65604482015269726f206164647265737360b01b6064820152608401610bab565b506001600160a01b031660009081526008602052604090205490565b60606011611e0f6001846153e6565b81548110611e1f57611e1f6153fd565b90600052602060002090600b02016004018054806020026020016040519081016040528092919081815260200182805480156110db57602002820191906000526020600020906000905b82829054906101000a900463ffffffff1663ffffffff1681526020019060040190602082600301049283019260010382029150808411611e69575094979650505050505050565b60006011611ebf6001846153e6565b81548110611ecf57611ecf6153fd565b90600052602060002090600b0201600201549050919050565b611ef38484846122ae565b611eff84848484613246565b611f1b5760405162461bcd60e51b8152600401610bab90615464565b50505050565b600454600160a01b900460ff1615611f4b5760405162461bcd60e51b8152600401610bab906153a6565b6000546001600160a01b0316336001600160a01b031614611f6b57600080fd5b6004805460ff60a01b1916600160a01b1790557f62e78cea01bee320cd4e420270b5ea74000d11b0c9f74754ebdbfc544b05a258610fe13390565b6000546001600160a01b0316336001600160a01b031614611fc657600080fd5b6017805460ff191660ff92909216919091179055565b6000546001600160a01b0316336001600160a01b031614611ffc57600080fd5b60408051808201825260ff8085168252831660208083019190915263ffffffff86166000908152601590915291909120611f1b916002614a6a565b6000546001600160a01b0316336001600160a01b0316148061206c57506003546001600160a01b0316336001600160a01b0316145b61207557600080fd5b6001600160a01b03811661208857600080fd5b600480546001600160a01b0319166001600160a01b0392909216919091179055565b606060068054610ac090615371565b600454600160a01b900460ff16156120e35760405162461bcd60e51b8152600401610bab906153a6565b6001600160a01b03821633141561213c5760405162461bcd60e51b815260206004820152601960248201527f4245503732313a20617070726f766520746f2063616c6c6572000000000000006044820152606401610bab565b336000818152600a602090815260408083206001600160a01b03871680855290835292819020805460ff191686151590811790915590519081529192917f17307eab39ab6107e8899845ad3d59bd9653f200f220920489ca2b5937696c31910160405180910390a35050565b6000546001600160a01b0316336001600160a01b0316146121c857600080fd5b6001600160a01b0381166121db57600080fd5b600080546001600160a01b0319166001600160a01b0392909216919091179055565b6000546001600160a01b0316336001600160a01b03161461221d57600080fd5b6001600160a01b03811661223057600080fd5b600380546001600160a01b0319166001600160a01b0392909216919091179055565b600454600160a01b900460ff161561227c5760405162461bcd60e51b8152600401610bab906153a6565b612286338361287a565b6122a25760405162461bcd60e51b8152600401610bab90615413565b611f1b84848484611ee8565b826001600160a01b03166122c182611bcf565b6001600160a01b0316146123295760405162461bcd60e51b815260206004820152602960248201527f4245503732313a207472616e73666572206f6620746f6b656e2074686174206960448201526839903737ba1037bbb760b91b6064820152608401610bab565b6001600160a01b03821661238b5760405162461bcd60e51b8152602060048201526024808201527f4245503732313a207472616e7366657220746f20746865207a65726f206164646044820152637265737360e01b6064820152608401610bab565b612396838383613344565b6123a160008261280c565b6001600160a01b03831660009081526008602052604081208054600192906123ca9084906153e6565b90915550506001600160a01b03821660009081526008602052604081208054600192906123f89084906154b6565b909155505060008181526007602052604080822080546001600160a01b0319166001600160a01b0386811691821790925591518493918716917fddf252ad1be2c89b69c2b068fc378daa952ba7f163c4a11628f55a4df523b3ef91a4505050565b6060610aab8261334f565b6000546001600160a01b0316336001600160a01b03161461248457600080fd5b6017805460ff909216600160681b0260ff60681b19909216919091179055565b606060116124b36001846153e6565b815481106124c3576124c36153fd565b90600052602060002090600b02016005018054806020026020016040519081016040528092919081815260200182805480156110db576000918252602091829020805460ff1684529082028301929091600191018084116110ac575094979650505050505050565b6000546001600160a01b0316336001600160a01b03161461254b57600080fd5b6017805461ffff90921663010000000264ffff00000019909216919091179055565b6060601161257c6001846153e6565b8154811061258c5761258c6153fd565b90600052602060002090600b02016008018054806020026020016040519081016040528092919081815260200182805480156110db576000918252602091829020805460ff1684529082028301929091600191018084116110ac575094979650505050505050565b6001546001600160a01b0316336001600160a01b03161461261457600080fd5b611aed82826134b1565b612627816127ef565b6126815760405162461bcd60e51b815260206004820152602560248201527f4e424d6f6e436f72653a204275726e696e67206e6f6e2d6578697374616e7420604482015264272126b7b760d91b6064820152608401610bab565b33601161268f6001846153e6565b8154811061269f5761269f6153fd565b600091825260209091206001600b9092020101546001600160a01b0316146127205760405162461bcd60e51b815260206004820152602e60248201527f4e424d6f6e436f72653a204f776e657220646f6573206e6f74206f776e20737060448201526d32b1b4b334b2b210272126b7b71760911b6064820152608401610bab565b61272981613dba565b60405181907f0f72e6fe9c0fcf69b106238a2722941576b434bd90a630a06fc938ddd7d7e9a390600090a250565b6000546001600160a01b0316336001600160a01b0316148061278c57506003546001600160a01b0316336001600160a01b0316145b61279557600080fd5b6001600160a01b0381166127a857600080fd5b600280546001600160a01b0319166001600160a01b0392909216919091179055565b60006001600160e01b0319821663780e9d6360e01b1480610aab5750610aab82613dc6565b6000908152600760205260409020546001600160a01b0316151590565b600081815260096020526040902080546001600160a01b0319166001600160a01b038416908117909155819061284182611bcf565b6001600160a01b03167f8c5be1e5ebec7d5bd14f71427d1e84f3dd0314c0f7b2291e5b200ac8c7c3b92560405160405180910390a45050565b6000612885826127ef565b6128e65760405162461bcd60e51b815260206004820152602c60248201527f4245503732313a206f70657261746f7220717565727920666f72206e6f6e657860448201526b34b9ba32b73a103a37b5b2b760a11b6064820152608401610bab565b60006128f183611bcf565b9050806001600160a01b0316846001600160a01b0316148061292c5750836001600160a01b031661292184610b43565b6001600160a01b0316145b8061295c57506001600160a01b038082166000908152600a602090815260408083209388168352929052205460ff165b949350505050565b600061297286868686613e16565b63ffffffff84166000908152601560209081526040808320805482518185028101850190935280835294955092939092918301828280156129f057602002820191906000526020600020906000905b825461010083900a900460ff168152602060019283018181049485019490930390920291018084116129c15790505b505050505090506000600767ffffffffffffffff811115612a1357612a136150e1565b604051908082528060200260200182016040528015612a3c578160200160208202803683370190505b509050600083600181518110612a5457612a546153fd565b602002602001015190506102898163ffffffff1611612aff5760005b60078160ff161015612af95760108a82604051602001612a9d92919091825260ff16602082015260400190565b6040516020818303038152906040528051906020012060001c612ac091906154e4565b838260ff1681518110612ad557612ad56153fd565b60ff9092166020928302919091019091015280612af1816154f8565b915050612a70565b50612e40565b6103518163ffffffff1611612ba55760005b60078160ff161015612af95760108a82604051602001612b3e92919091825260ff16602082015260400190565b6040516020818303038152906040528051906020012060001c612b6191906154e4565b612b6c9060056154b6565b838260ff1681518110612b8157612b816153fd565b60ff9092166020928302919091019091015280612b9d816154f8565b915050612b11565b6103b58163ffffffff1611612c4b5760005b60078160ff161015612af957600f8a82604051602001612be492919091825260ff16602082015260400190565b6040516020818303038152906040528051906020012060001c612c0791906154e4565b612c1290600b6154b6565b838260ff1681518110612c2757612c276153fd565b60ff9092166020928302919091019091015280612c43816154f8565b915050612bb7565b6103dd8163ffffffff1611612cf15760005b60078160ff161015612af957600d8a82604051602001612c8a92919091825260ff16602082015260400190565b6040516020818303038152906040528051906020012060001c612cad91906154e4565b612cb89060126154b6565b838260ff1681518110612ccd57612ccd6153fd565b60ff9092166020928302919091019091015280612ce9816154f8565b915050612c5d565b6103e68163ffffffff1611612d975760005b60078160ff161015612af957600f8a82604051602001612d3092919091825260ff16602082015260400190565b6040516020818303038152906040528051906020012060001c612d5391906154e4565b612d5e90601a6154b6565b838260ff1681518110612d7357612d736153fd565b60ff9092166020928302919091019091015280612d8f816154f8565b915050612d03565b8063ffffffff166103e71415612e405760005b60078160ff161015612e3e5760108a82604051602001612dd792919091825260ff16602082015260400190565b6040516020818303038152906040528051906020012060001c612dfa91906154e4565b612e059060236154b6565b838260ff1681518110612e1a57612e1a6153fd565b60ff9092166020928302919091019091015280612e36816154f8565b915050612daa565b505b6000612e4b8a613fa8565b604080516101608101825260165481526001600160a01b038981166020808401918252429484018581526060808601968752608086018d815260a087018d905260c087018c905260e08701899052610100870182905261012087018290526000610140880181905260118054600181018255915287517f31ecc21a745e3968a04e9570e4425bc18fa8019c68028196b546d1669c200c68600b90920291820190815595517f31ecc21a745e3968a04e9570e4425bc18fa8019c68028196b546d1669c200c69820180546001600160a01b031916919098161790965591517f31ecc21a745e3968a04e9570e4425bc18fa8019c68028196b546d1669c200c6a86015595517f31ecc21a745e3968a04e9570e4425bc18fa8019c68028196b546d1669c200c6b850155518051969750949586958594612faf937f31ecc21a745e3968a04e9570e4425bc18fa8019c68028196b546d1669c200c6c90910192910190614b0b565b5060a08201518051612fcb916005840191602090910190614a6a565b5060c08201518051612fe7916006840191602090910190614a6a565b5060e08201518051613003916007840191602090910190614ba8565b506101008201518051613020916008840191602090910190614a6a565b50610120820151805161303d916009840191602090910190614a6a565b506101409190910151600a909101805460ff19169115159190911790556001600160a01b038981166000908152601460209081526040808320805460018181018355918552938390208651600b909502019384558583015190840180546001600160a01b0319169190951617909355918301516002820155606083015160038201556080830151805184936130d9926004850192910190614b0b565b5060a082015180516130f5916005840191602090910190614a6a565b5060c08201518051613111916006840191602090910190614a6a565b5060e0820151805161312d916007840191602090910190614ba8565b50610100820151805161314a916008840191602090910190614a6a565b506101208201518051613167916009840191602090910190614a6a565b506101409190910151600a909101805460ff1916911515919091179055601654613192908a90614067565b6001600160a01b03891660009081526013602090815260408220601680548254600181018455928552928420909101919091558054916131d183615518565b90915550506001600160a01b03891660009081526012602052604081208054916131fa83615518565b90915550506016546040516001600160a01b038b1691907f47cb4d17ba1d2b90700b9a127f2fec8f547e1497333d5591a0a1e0942f6e1c5290600090a350505050505050505050505050565b60006001600160a01b0384163b156133395760405163083305f960e31b81526001600160a01b038516906341982fc89061328a903390899088908890600401615533565b6020604051808303816000875af19250505080156132c5575060408051601f3d908101601f191682019092526132c291810190615570565b60015b61331f573d8080156132f3576040519150601f19603f3d011682016040523d82523d6000602084013e6132f8565b606091505b5080516133175760405162461bcd60e51b8152600401610bab90615464565b805181602001fd5b6001600160e01b03191663083305f960e31b14905061295c565b506001949350505050565b610d0b838383614081565b606061335a826127ef565b6133c05760405162461bcd60e51b815260206004820152603160248201527f42455037323155524953746f726167653a2055524920717565727920666f72206044820152703737b732bc34b9ba32b73a103a37b5b2b760791b6064820152608401610bab565b6000828152600b6020526040812080546133d990615371565b80601f016020809104026020016040519081016040528092919081815260200182805461340590615371565b80156134525780601f1061342757610100808354040283529160200191613452565b820191906000526020600020905b81548152906001019060200180831161343557829003601f168201915b505050505090506000613463614139565b9050805160001415613476575092915050565b8151156134a857808260405160200161349092919061558d565b60405160208183030381529060405292505050919050565b61295c84614148565b60006134bc83614213565b90506000816004815181106134d3576134d36153fd565b602002602001015190506000601560008363ffffffff1663ffffffff16815260200190815260200160002080548060200260200160405190810160405280929190818152602001828054801561356657602002820191906000526020600020906000905b825461010083900a900460ff168152602060019283018181049485019490930390920291018084116135375790505b505050505090506000600767ffffffffffffffff811115613589576135896150e1565b6040519080825280602002602001820160405280156135b2578160200160208202803683370190505b5090506000846001815181106135ca576135ca6153fd565b602002602001015190506102898163ffffffff16116136755760005b60078160ff16101561366f576015888260405160200161361392919091825260ff16602082015260400190565b6040516020818303038152906040528051906020012060001c61363691906154e4565b838260ff168151811061364b5761364b6153fd565b60ff9092166020928302919091019091015280613667816154f8565b9150506135e6565b506139b6565b6103518163ffffffff161161371b5760005b60078160ff16101561366f57601288826040516020016136b492919091825260ff16602082015260400190565b6040516020818303038152906040528051906020012060001c6136d791906154e4565b6136e29060086154b6565b838260ff16815181106136f7576136f76153fd565b60ff9092166020928302919091019091015280613713816154f8565b915050613687565b6103b58163ffffffff16116137c15760005b60078160ff16101561366f576014888260405160200161375a92919091825260ff16602082015260400190565b6040516020818303038152906040528051906020012060001c61377d91906154e4565b6137889060106154b6565b838260ff168151811061379d5761379d6153fd565b60ff90921660209283029190910190910152806137b9816154f8565b91505061372d565b6103dd8163ffffffff16116138675760005b60078160ff16101561366f576015888260405160200161380092919091825260ff16602082015260400190565b6040516020818303038152906040528051906020012060001c61382391906154e4565b61382e9060196154b6565b838260ff1681518110613843576138436153fd565b60ff909216602092830291909101909101528061385f816154f8565b9150506137d3565b6103e68163ffffffff161161390d5760005b60078160ff16101561366f57601588826040516020016138a692919091825260ff16602082015260400190565b6040516020818303038152906040528051906020012060001c6138c991906154e4565b6138d49060236154b6565b838260ff16815181106138e9576138e96153fd565b60ff9092166020928302919091019091015280613905816154f8565b915050613879565b8063ffffffff166103e714156139b65760005b60078160ff1610156139b4576014888260405160200161394d92919091825260ff16602082015260400190565b6040516020818303038152906040528051906020012060001c61397091906154e4565b61397b90602e6154b6565b838260ff1681518110613990576139906153fd565b60ff90921660209283029190910190910152806139ac816154f8565b915050613920565b505b60006139c188613fa8565b604080516101608101825260165481526001600160a01b038a81166020808401918252429484018581526060808601968752608086018e815260a087018d905260c087018c905260e08701899052610100870182905261012087018290526000610140880181905260118054600181018255915287517f31ecc21a745e3968a04e9570e4425bc18fa8019c68028196b546d1669c200c68600b90920291820190815595517f31ecc21a745e3968a04e9570e4425bc18fa8019c68028196b546d1669c200c69820180546001600160a01b031916919098161790965591517f31ecc21a745e3968a04e9570e4425bc18fa8019c68028196b546d1669c200c6a86015595517f31ecc21a745e3968a04e9570e4425bc18fa8019c68028196b546d1669c200c6b850155518051969750949586958594613b25937f31ecc21a745e3968a04e9570e4425bc18fa8019c68028196b546d1669c200c6c90910192910190614b0b565b5060a08201518051613b41916005840191602090910190614a6a565b5060c08201518051613b5d916006840191602090910190614a6a565b5060e08201518051613b79916007840191602090910190614ba8565b506101008201518051613b96916008840191602090910190614a6a565b506101208201518051613bb3916009840191602090910190614a6a565b506101409190910151600a909101805460ff19169115159190911790556001600160a01b038a81166000908152601460209081526040808320805460018181018355918552938390208651600b909502019384558583015190840180546001600160a01b031916919095161790935591830151600282015560608301516003820155608083015180518493613c4f926004850192910190614b0b565b5060a08201518051613c6b916005840191602090910190614a6a565b5060c08201518051613c87916006840191602090910190614a6a565b5060e08201518051613ca3916007840191602090910190614ba8565b506101008201518051613cc0916008840191602090910190614a6a565b506101208201518051613cdd916009840191602090910190614a6a565b506101409190910151600a909101805460ff1916911515919091179055601654613d08908b90614067565b6001600160a01b038a166000908152601360209081526040822060168054825460018101845592855292842090910191909155805491613d4783615518565b90915550506001600160a01b038a166000908152601260205260408120805491613d7083615518565b90915550506016546040516001600160a01b038c1691907f47cb4d17ba1d2b90700b9a127f2fec8f547e1497333d5591a0a1e0942f6e1c5290600090a35050505050505050505050565b613dc3816144ff565b50565b60006001600160e01b031982166380ac58cd60e01b1480613df757506001600160e01b03198216635b5e139f60e01b145b80610aab57506301ffc9a760e01b6001600160e01b0319831614610aab565b60408051600780825261010082019092526060916020820160e0803683370190505090508381600081518110613e4e57613e4e6153fd565b63ffffffff9290921660209283029190910182015260175460408051928301889052600190830152610100900461ffff16906060016040516020818303038152906040528051906020012060001c613ea691906154e4565b81600181518110613eb957613eb96153fd565b602002602001019063ffffffff16908163ffffffff16815250508281600281518110613ee757613ee76153fd565b602002602001019063ffffffff16908163ffffffff1681525050600281600381518110613f1657613f166153fd565b602002602001019063ffffffff16908163ffffffff16815250508181600481518110613f4457613f446153fd565b602002602001019063ffffffff16908163ffffffff1681525050601760119054906101000a900461ffff1661ffff1681600581518110613f8657613f866153fd565b602002602001019063ffffffff16908163ffffffff1681525050949350505050565b604080516002808252606080830184529260208301908036833701905050905060005b60028161ffff1610156140615760175460408051602080820187905261ffff858116838501528351808403850181526060909301909352815191012061401b92600160701b9004909116906154e4565b6140269060016154b6565b828261ffff168151811061403c5761403c6153fd565b61ffff9092166020928302919091019091015280614059816155bc565b915050613fcb565b50919050565b611aed82826040518060200160405280600081525061453f565b6001600160a01b0383166140dc576140d781600e80546000838152600f60205260408120829055600182018355919091527fbb7b4a454dc3493923482f07822329ed19e8244eff582cc204f8554c3620c3fd0155565b6140ff565b816001600160a01b0316836001600160a01b0316146140ff576140ff8382614572565b6001600160a01b03821661411657610d0b8161460f565b826001600160a01b0316826001600160a01b031614610d0b57610d0b82826146be565b606060108054610ac090615371565b6060614153826127ef565b6141b75760405162461bcd60e51b815260206004820152602f60248201527f4245503732314d657461646174613a2055524920717565727920666f72206e6f60448201526e3732bc34b9ba32b73a103a37b5b2b760891b6064820152608401610bab565b60006141c1614139565b905060008151116141e1576040518060200160405280600081525061420c565b806141eb84614702565b6040516020016141fc92919061558d565b6040516020818303038152906040525b9392505050565b60408051600680825260e082019092526060916020820160c0803683375050601754604080516020808201889052600082840152825180830384018152606090920190925280519101209293506142709260ff90911691506154e4565b61427b9060016154b6565b8160008151811061428e5761428e6153fd565b63ffffffff9290921660209283029190910182015260175460408051928301859052600190830152610100900461ffff16906060016040516020818303038152906040528051906020012060001c6142e691906154e4565b816001815181106142f9576142f96153fd565b63ffffffff9290921660209283029190910182015260175460408051928301859052600290830152600091630100000090910461ffff16906060016040516020818303038152906040528051906020012060001c61435791906154e4565b905063ffffffff81166143e057601754604080516020808201879052600382840152825180830384018152606090920190925280519101206143a391600160481b900460ff16906154e4565b6143ae9060016154b6565b826002815181106143c1576143c16153fd565b602002602001019063ffffffff16908163ffffffff1681525050614410565b6000826002815181106143f5576143f56153fd565b602002602001019063ffffffff16908163ffffffff16815250505b600182600381518110614425576144256153fd565b63ffffffff9290921660209283029190910182015260175460408051928301869052600490830152600160581b900461ffff16906060016040516020818303038152906040528051906020012060001c61447f91906154e4565b61448a9060016154b6565b8260048151811061449d5761449d6153fd565b602002602001019063ffffffff16908163ffffffff1681525050601760119054906101000a900461ffff1661ffff16826005815181106144df576144df6153fd565b602002602001019063ffffffff16908163ffffffff168152505050919050565b61450881614800565b6000818152600b60205260409020805461452190615371565b159050613dc3576000818152600b60205260408120613dc391614c3f565b61454983836148a7565b6145566000848484613246565b610d0b5760405162461bcd60e51b8152600401610bab90615464565b6000600161457f84611d79565b61458991906153e6565b6000838152600d60205260409020549091508082146145dc576001600160a01b0384166000908152600c602090815260408083208584528252808320548484528184208190558352600d90915290208190555b506000918252600d602090815260408084208490556001600160a01b039094168352600c81528383209183525290812055565b600e54600090614621906001906153e6565b6000838152600f6020526040812054600e8054939450909284908110614649576146496153fd565b9060005260206000200154905080600e838154811061466a5761466a6153fd565b6000918252602080832090910192909255828152600f9091526040808220849055858252812055600e8054806146a2576146a26155de565b6001900381819060005260206000200160009055905550505050565b60006146c983611d79565b6001600160a01b039093166000908152600c602090815260408083208684528252808320859055938252600d9052919091209190915550565b6060816147265750506040805180820190915260018152600360fc1b602082015290565b8160005b8115614750578061473a81615518565b91506147499050600a836155f4565b915061472a565b60008167ffffffffffffffff81111561476b5761476b6150e1565b6040519080825280601f01601f191660200182016040528015614795576020820181803683370190505b5090505b841561295c576147aa6001836153e6565b91506147b7600a866154e4565b6147c29060306154b6565b60f81b8183815181106147d7576147d76153fd565b60200101906001600160f81b031916908160001a9053506147f9600a866155f4565b9450614799565b600061480b82611bcf565b905061481981600084613344565b61482460008361280c565b6001600160a01b038116600090815260086020526040812080546001929061484d9084906153e6565b909155505060008281526007602052604080822080546001600160a01b0319169055518391906001600160a01b038416907fddf252ad1be2c89b69c2b068fc378daa952ba7f163c4a11628f55a4df523b3ef908390a45050565b6001600160a01b0382166148fd5760405162461bcd60e51b815260206004820181905260248201527f4245503732313a206d696e7420746f20746865207a65726f20616464726573736044820152606401610bab565b614906816127ef565b156149535760405162461bcd60e51b815260206004820152601c60248201527f4245503732313a20746f6b656e20616c7265616479206d696e746564000000006044820152606401610bab565b61495f60008383613344565b6001600160a01b03821660009081526008602052604081208054600192906149889084906154b6565b909155505060008181526007602052604080822080546001600160a01b0319166001600160a01b03861690811790915590518392907fddf252ad1be2c89b69c2b068fc378daa952ba7f163c4a11628f55a4df523b3ef908290a45050565b8280546149f290615371565b90600052602060002090601f016020900481019282614a145760008555614a5a565b82601f10614a2d57805160ff1916838001178555614a5a565b82800160010185558215614a5a579182015b82811115614a5a578251825591602001919060010190614a3f565b50614a66929150614c75565b5090565b82805482825590600052602060002090601f01602090048101928215614a5a5791602002820160005b83821115614ad157835183826101000a81548160ff021916908360ff1602179055509260200192600101602081600001049283019260010302614a93565b8015614afe5782816101000a81549060ff0219169055600101602081600001049283019260010302614ad1565b5050614a66929150614c75565b82805482825590600052602060002090600701600890048101928215614a5a5791602002820160005b83821115614b7857835183826101000a81548163ffffffff021916908363ffffffff1602179055509260200192600401602081600301049283019260010302614b34565b8015614afe5782816101000a81549063ffffffff0219169055600401602081600301049283019260010302614b78565b82805482825590600052602060002090600f01601090048101928215614a5a5791602002820160005b83821115614c1157835183826101000a81548161ffff021916908361ffff1602179055509260200192600201602081600101049283019260010302614bd1565b8015614afe5782816101000a81549061ffff0219169055600201602081600101049283019260010302614c11565b508054614c4b90615371565b6000825580601f10614c5b575050565b601f016020900490600052602060002090810190613dc391905b5b80821115614a665760008155600101614c76565b6001600160e01b031981168114613dc357600080fd5b600060208284031215614cb257600080fd5b813561420c81614c8a565b60005b83811015614cd8578181015183820152602001614cc0565b83811115611f1b5750506000910152565b60008151808452614d01816020860160208601614cbd565b601f01601f19169290920160200192915050565b60208152600061420c6020830184614ce9565b600060208284031215614d3a57600080fd5b5035919050565b80356001600160a01b0381168114614d5857600080fd5b919050565b60008060408385031215614d7057600080fd5b614d7983614d41565b946020939093013593505050565b600060208284031215614d9957600080fd5b61420c82614d41565b600080600060608486031215614db757600080fd5b614dc084614d41565b9250614dce60208501614d41565b9150604084013590509250925092565b803560ff81168114614d5857600080fd5b600060208284031215614e0157600080fd5b61420c82614dde565b600060208284031215614e1c57600080fd5b813561ffff8116811461420c57600080fd5b803563ffffffff81168114614d5857600080fd5b600060208284031215614e5457600080fd5b61420c82614e2e565b600081518084526020808501945080840160005b83811015614e9057815160ff1687529582019590820190600101614e71565b509495945050505050565b60208152600061420c6020830184614e5d565b600081518084526020808501945080840160005b83811015614e9057815163ffffffff1687529582019590820190600101614ec2565b600081518084526020808501945080840160005b83811015614e9057815161ffff1687529582019590820190600101614ef8565b6000610160825184526020830151614f3b60208601826001600160a01b03169052565b5060408301516040850152606083015160608501526080830151816080860152614f6782860182614eae565b91505060a083015184820360a0860152614f818282614e5d565b91505060c083015184820360c0860152614f9b8282614e5d565b91505060e083015184820360e0860152614fb58282614ee4565b9150506101008084015185830382870152614fd08382614e5d565b925050506101208084015185830382870152614fec8382614e5d565b92505050610140808401516150048287018215159052565b5090949350505050565b60208152600061420c6020830184614f18565b6000602080830181845280855180835260408601915060408160051b870101925083870160005b8281101561507657603f19888603018452615064858351614f18565b94509285019290850190600101615048565b5092979650505050505050565b600080600080600060a0868803121561509b57600080fd5b853594506150ab60208701614e2e565b93506150b960408701614e2e565b92506150c760608701614e2e565b91506150d560808701614d41565b90509295509295909350565b634e487b7160e01b600052604160045260246000fd5b600067ffffffffffffffff80841115615112576151126150e1565b604051601f8501601f19908116603f0116810190828211818310171561513a5761513a6150e1565b8160405280935085815286868601111561515357600080fd5b858560208301376000602087830101525050509392505050565b60006020828403121561517f57600080fd5b813567ffffffffffffffff81111561519657600080fd5b8201601f810184136151a757600080fd5b61295c848235602084016150f7565b6020808252825182820181905260009190848201906040850190845b818110156151ee578351835292840192918401916001016151d2565b50909695505050505050565b60208152600061420c6020830184614ee4565b60208152600061420c6020830184614eae565b6000806000806080858703121561523657600080fd5b61523f85614d41565b935061524d60208601614d41565b925060408501359150606085013567ffffffffffffffff81111561527057600080fd5b8501601f8101871361528157600080fd5b615290878235602084016150f7565b91505092959194509250565b6000806000606084860312156152b157600080fd5b6152ba84614e2e565b92506152c860208501614dde565b91506152d660408501614dde565b90509250925092565b600080604083850312156152f257600080fd5b6152fb83614d41565b91506020830135801515811461531057600080fd5b809150509250929050565b6000806040838503121561532e57600080fd5b8235915061533e60208401614d41565b90509250929050565b6000806040838503121561535a57600080fd5b61536383614d41565b915061533e60208401614d41565b600181811c9082168061538557607f821691505b6020821081141561406157634e487b7160e01b600052602260045260246000fd5b60208082526010908201526f14185d5cd8589b194e881c185d5cd95960821b604082015260600190565b634e487b7160e01b600052601160045260246000fd5b6000828210156153f8576153f86153d0565b500390565b634e487b7160e01b600052603260045260246000fd5b60208082526031908201527f4245503732313a207472616e736665722063616c6c6572206973206e6f74206f6040820152701ddb995c881b9bdc88185c1c1c9bdd9959607a1b606082015260800190565b60208082526032908201527f4245503732313a207472616e7366657220746f206e6f6e20424550373231526560408201527131b2b4bb32b91034b6b83632b6b2b73a32b960711b606082015260800190565b600082198211156154c9576154c96153d0565b500190565b634e487b7160e01b600052601260045260246000fd5b6000826154f3576154f36154ce565b500690565b600060ff821660ff81141561550f5761550f6153d0565b60010192915050565b600060001982141561552c5761552c6153d0565b5060010190565b6001600160a01b038581168252841660208201526040810183905260806060820181905260009061556690830184614ce9565b9695505050505050565b60006020828403121561558257600080fd5b815161420c81614c8a565b6000835161559f818460208801614cbd565b8351908301906155b3818360208801614cbd565b01949350505050565b600061ffff808316818114156155d4576155d46153d0565b6001019392505050565b634e487b7160e01b600052603160045260246000fd5b600082615603576156036154ce565b50049056fea264697066735822122063607a6bf7cffb23e49515e0d0e332aae1af795e6b144f8ac5682753dc7f8d3164736f6c634300080b0033",
    "sourcePath": "c:/Users/suwan/OneDrive/Desktop/School Stuff/CODE Uni/BSC/nbc-contracts/contracts/implementation/NBMonMinting.sol",
    "compiler": {
        "name": "solc",
        "version": "0.8.11+commit.d7f03943"
    },
    "functionHashes": {
        "_baseEvolutionDuration()": "80a6146d",
        "_maxFertilityPoints()": "91a4c241",
        "_maxPotential()": "a8892ccd",
        "_mutationChance()": "64cb9deb",
        "_mutationTypes()": "32cfe95f",
        "_oneParentMutationChance()": "9142828b",
        "_rarityChance()": "d49a49cf",
        "_totalGenders()": "7ed646cc",
        "_totalGenera()": "27555a3c",
        "_totalPassives()": "5fb0f588",
        "_totalSpecies()": "d7ba179a",
        "_totalTypes()": "ad3ba7ed",
        "_twoParentsMutationChance()": "3d7a0e86",
        "admin()": "f851a440",
        "approve(address,uint256)": "095ea7b3",
        "balanceOf(address)": "70a08231",
        "burnNBMon(uint256)": "f6e6e061",
        "burner()": "27810b6e",
        "ceo()": "908921fc",
        "changeBaseEvolutionDuration(uint32)": "2cde7538",
        "changeMaxFertilityPoints(uint16)": "2b618380",
        "changeMaxPotential(uint8)": "272565ee",
        "changeMutationChance(uint16)": "daa6cc71",
        "changeMutationTypes(uint8)": "4b7cfe81",
        "changeRarityChance(uint16)": "498c4a01",
        "changeTotalGenders(uint8)": "86e70e11",
        "changeTotalGenera(uint16)": "475a6d6c",
        "changeTotalSpecies(uint8)": "359930cf",
        "changeTypes(uint8)": "cd214b6a",
        "currentNBMonCount()": "d7f93524",
        "getAllNBMonsOfOwner(address)": "4bb1b2e1",
        "getApproved(uint256)": "081812fc",
        "getBornAt(uint256)": "7392ed1b",
        "getInheritedMoves(uint256)": "68308732",
        "getInheritedPassives(uint256)": "dfac24be",
        "getNBMon(uint256)": "479a506d",
        "getNbmonStats(uint256)": "73168a39",
        "getOwnerNBMonCount(address)": "11e38c5e",
        "getOwnerNBMonIds(address)": "5cad8213",
        "getPassives(uint256)": "6b0bb87d",
        "getPotential(uint256)": "434807ad",
        "getTransferredAt(uint256)": "194ddb2a",
        "getTypes(uint256)": "d6e39ada",
        "getTypesOfGenus(uint32)": "53fd1b1b",
        "isApprovedForAll(address,address)": "e985e9c5",
        "manager()": "481c6a75",
        "mintOrigin(uint256,address)": "e5ebe143",
        "mintWild(uint256,uint32,uint32,uint32,address)": "5244e900",
        "minter()": "07546172",
        "name()": "06fdde03",
        "newAdmin(address)": "a6ba31c1",
        "newBurner(address)": "f840f72b",
        "newCEO(address)": "a9917dbe",
        "newManager(address)": "906e9400",
        "newMinter(address)": "57341912",
        "ownerOf(uint256)": "6352211e",
        "pause()": "8456cb59",
        "paused()": "5c975abb",
        "safeTransfer(address,address,uint256,bytes)": "76b82a91",
        "safeTransferFrom(address,address,uint256)": "42842e0e",
        "safeTransferFrom(address,address,uint256,bytes)": "b88d4fde",
        "setApprovalForAll(address,bool)": "a22cb465",
        "setBaseURI(string)": "55f804b3",
        "supportsInterface(bytes4)": "01ffc9a7",
        "symbol()": "95d89b41",
        "tokenByIndex(uint256)": "4f6ccce7",
        "tokenOfOwnerByIndex(address,uint256)": "2f745c59",
        "tokenURI(uint256)": "c87b56dd",
        "totalSupply()": "18160ddd",
        "transfer(address,address,uint256)": "beabacc8",
        "transferFrom(address,address,uint256)": "23b872dd",
        "unpause()": "3f4ba83a",
        "updateTypesOfGenus(uint32,uint8,uint8)": "8d77dc24"
    },
    "gasEstimates": {
        "creation": {
            "codeDepositCost": "4415600",
            "executionCost": "infinite",
            "totalCost": "infinite"
        },
        "external": {
            "_baseEvolutionDuration()": "2486",
            "_maxFertilityPoints()": "2441",
            "_maxPotential()": "2420",
            "_mutationChance()": "2393",
            "_mutationTypes()": "2442",
            "_oneParentMutationChance()": "2413",
            "_rarityChance()": "2479",
            "_totalGenders()": "2447",
            "_totalGenera()": "2421",
            "_totalPassives()": "2463",
            "_totalSpecies()": "2419",
            "_totalTypes()": "2464",
            "_twoParentsMutationChance()": "2480",
            "admin()": "2491",
            "approve(address,uint256)": "infinite",
            "balanceOf(address)": "2724",
            "burnNBMon(uint256)": "infinite",
            "burner()": "2450",
            "ceo()": "2404",
            "changeBaseEvolutionDuration(uint32)": "26784",
            "changeMaxFertilityPoints(uint16)": "26816",
            "changeMaxPotential(uint8)": "26785",
            "changeMutationChance(uint16)": "26802",
            "changeMutationTypes(uint8)": "26844",
            "changeRarityChance(uint16)": "26781",
            "changeTotalGenders(uint8)": "26783",
            "changeTotalGenera(uint16)": "26816",
            "changeTotalSpecies(uint8)": "26850",
            "changeTypes(uint8)": "26849",
            "currentNBMonCount()": "2406",
            "getAllNBMonsOfOwner(address)": "infinite",
            "getApproved(uint256)": "4867",
            "getBornAt(uint256)": "4748",
            "getInheritedMoves(uint256)": "infinite",
            "getInheritedPassives(uint256)": "infinite",
            "getNBMon(uint256)": "infinite",
            "getNbmonStats(uint256)": "infinite",
            "getOwnerNBMonCount(address)": "2628",
            "getOwnerNBMonIds(address)": "infinite",
            "getPassives(uint256)": "infinite",
            "getPotential(uint256)": "infinite",
            "getTransferredAt(uint256)": "4793",
            "getTypes(uint256)": "infinite",
            "getTypesOfGenus(uint32)": "infinite",
            "isApprovedForAll(address,address)": "infinite",
            "manager()": "2427",
            "mintOrigin(uint256,address)": "infinite",
            "mintWild(uint256,uint32,uint32,uint32,address)": "infinite",
            "minter()": "2451",
            "name()": "infinite",
            "newAdmin(address)": "26832",
            "newBurner(address)": "29059",
            "newCEO(address)": "26876",
            "newManager(address)": "29061",
            "newMinter(address)": "28994",
            "ownerOf(uint256)": "2711",
            "pause()": "29841",
            "paused()": "2399",
            "safeTransfer(address,address,uint256,bytes)": "infinite",
            "safeTransferFrom(address,address,uint256)": "infinite",
            "safeTransferFrom(address,address,uint256,bytes)": "infinite",
            "setApprovalForAll(address,bool)": "28926",
            "setBaseURI(string)": "infinite",
            "supportsInterface(bytes4)": "infinite",
            "symbol()": "infinite",
            "tokenByIndex(uint256)": "6783",
            "tokenOfOwnerByIndex(address,uint256)": "5020",
            "tokenURI(uint256)": "infinite",
            "totalSupply()": "2405",
            "transfer(address,address,uint256)": "infinite",
            "transferFrom(address,address,uint256)": "infinite",
            "unpause()": "29813",
            "updateTypesOfGenus(uint32,uint8,uint8)": "infinite"
        },
        "internal": {
            "_mintOrigin(uint256,address)": "infinite",
            "_mintWild(uint256,uint32,uint32,uint32,address)": "infinite",
            "_randomizeNbmonStats(uint256)": "infinite",
            "_randomizePassives(uint256)": "infinite",
            "_syncNbmonStatsWild(uint256,uint32,uint32,uint32)": "infinite"
        }
    }
}